:020000040801F1
:10000000A0DA01209D020108A36C0108E732010873
:10001000A16C01082D120108C17701080000000041
:100020000000000000000000000000004571010811
:100030002F12010800000000A56C0108DD71010805
:10004000B7020108B7020108B7020108B96D01083B
:10005000B7020108B7020108B7020108B702010898
:10006000B7020108B7020108B7020108B702010888
:10007000B7020108B7020108B7020108B702010878
:10008000B7020108B7020108B7020108B702010868
:10009000B7020108B7020108B7020108B702010858
:1000A000B7020108B7020108B7020108B702010848
:1000B000B70201083972010871720108B70201081C
:1000C000B7020108B7020108B7020108B702010828
:1000D000B702010895770108B7020108B7020108C5
:1000E000B7020108A96C0108B7020108B7020108AC
:1000F000B7020108B7020108B7020108B7020108F8
:10010000B7020108B7020108B7020108B7020108E7
:10011000B7020108B7020108B7020108B7020108D7
:10012000B7020108B7020108B7020108B7020108C7
:10013000B70201089D120108B7020108B7020108C1
:10014000B7020108B7020108B7020108B7020108A7
:10015000B7020108B7020108B7020108B702010897
:10016000B7020108B7020108B7020108B702010887
:10017000B7020108B7020108B70201080000000039
:10018000B7020108B702010800F002F800F076F8A3
:100190000AA090E8000C82448344AAF10107DA45E2
:1001A00001D100F06BF8AFF2090EBAE80F0013F0BE
:1001B000010F18BFFB1A43F001031847E48901003F
:1001C000048A01000A444FF0000C10F8013B13F0C0
:1001D000070408BF10F8014B1D1108BF10F8015BA0
:1001E000641E05D010F8016B641E01F8016BF9D193
:1001F00013F0080F1EBF10F8014BAD1C0C1B09D1EA
:100200006D1E58BF01F801CBFAD505E014F8016B5B
:1002100001F8016B6D1EF9D59142D6D370470000ED
:100220000023002400250026103A28BF78C1FBD8FF
:10023000520728BF30C148BF0B607047642900F0E7
:100240003581752900F03281782900F06B816329AE
:1002500000F05784732900F05C84002070471FB5BC
:1002600013F046FF00F0E6FE04000020002113F02A
:10027000EBFD401C60601FBD10B510BD00F09EFE80
:100280001146FFF7ECFF0CF01DFB00F0C5FE03B4B8
:10029000FFF7F2FF03BC07F05CFC00000948804751
:1002A00009480047FEE7FEE7FEE7FEE7FEE7FEE758
:1002B000FEE7FEE7FEE7FEE704480549054A064B70
:1002C00070470000E171010889010108A0D00120F8
:1002D000A0DA0120A0D20120A0D20120704753EA69
:1002E000020C00F069802DE9F04B4FF00006002B66
:1002F0001FBFB3FA83F503FA05F424FA05F65E404E
:1003000012BF1643B2FA82F502FA05F4C5F12005D0
:100310001EBF22FA05FC44EA0C04203556EA044CC0
:100320004FEA144418BF641C4FF000084FF0000956
:10033000904271EB030C39D3002919BFB1FA81F750
:1003400001FA07F6B0FA80F700FA07F6C7F12007BE
:100350001EBF20FA07FC46EA0C062037B6FBF4FC69
:10036000A7EB0507103F07F01F0BCBF120060CFA97
:100370000BFB2CFA06F644BFB3460026202FA4BF81
:100380005E464FF0000B5BEA060C08BF4FF0010B16
:1003900019EB0B09ABFB027C48EB0608C01B06FB04
:1003A00002CC0BFB03CC71EB0C01C1E70B46024600
:1003B00041464846BDE8F08B13B54FF000004FF0C2
:1003C0000001AFF30080BDE81C4070470FB4044942
:1003D00010B503AA029800F0A1FB10BC5DF814FB55
:1003E000180000200FB41CB5074B06AA7B446946D1
:1003F0000090059800F063FB0020694600F072FB56
:100400001CBC5DF814FB0000F506000070B5044646
:1004100085690068C10601D5302600E02026C007A6
:1004200007D070BDD4E9012130469047206A401CB6
:1004300020626D1EF6D570BD70B5044685690078E2
:10044000C00707D170BDD4E9012120209047206A60
:10045000401C20626D1EF6D570BD70B50C46054679
:10046000012A05D02878800600D5EA69002302E039
:10047000012305E05B1C934202D2E05C0028F9D125
:10048000A869E618C01AA861286A18442862284694
:10049000FFF7BCFF04E0D5E9012114F8010B9047F8
:1004A000B442F8D32846FFF7C7FF70BD2DE9F041ED
:1004B0000646002410687529314616A510D0AFF302
:1004C0000080002802DA404213A507E031688A075D
:1004D00001D512A502E0490704D511A5012401E0C8
:1004E000AFF3008000210A2206F1240709E0B0FBE7
:1004F000F2FCB0FBF2F302FB1C00303078541846DB
:10050000491C0028F3D123462A463046BDE8F04175
:1005100000F077BA000000002D0000002B00000062
:100520002000000070B504460D4621461068AFF368
:1005300000802188090502D50F4A7A4402E00E4A5C
:100540007A440E32002104F1240305E000F00F0686
:100550000009965D5E54491C0028F7D120780023DD
:10056000000704D5702D02D009B1022311322046B4
:10057000BDE8704000F045BACA8301002DE9F05F84
:10058000894604464FF0000ADFF874B1FB44C0F816
:1005900020A02046E1688847002874D0252806D08E
:1005A000D4E901219047206A401C2062F1E700262F
:1005B0005F462046E16888472028054607DB312D45
:1005C00005D2781910F8200C08B10643F1E7B007FE
:1005D00001D526F00406C4F81CA00027C4F818A012
:1005E0002A2D09D0284607F0ADFA38B304EB870866
:1005F000303DC8F8185019E059F8041B204604EBA8
:1006000087029161E1688847012F054618D1E069AA
:10061000002820DA26F020061DE0D8F8180000EBAC
:10062000800005EB40003038C8F818002046E1682B
:100630008847054607F086FA0028EED1012F0AD038
:100640002E2D08D12046E16888477F1C0546022FE1
:1006500046F02006C4DBA069002803DA404246F0D9
:100660000106A061F00701D026F010066C2D0BD01A
:10067000682D09D04C2D39D06A2D35D0742D35D048
:100680007A2D33D016E038E0E1682F4620468847BF
:10069000B842054609D16C2F26D04FF48060E1683E
:1006A000064320468847054604E06C2F1AD04FF4D5
:1006B000807006430DB3A5F14100192802D82035FA
:1006C00046F400664A462946204626604E46FFF715
:1006D000B5FD80B101280BD0F61D26F0070000F112
:1006E000080956E74020E4E78020D8E70020D6E755
:1006F00006F104094DE7284652E7206ABDE8F09F5D
:10070000A08301000FB400B58DB010A9099000912D
:100710000B904FF0FF300A9000200C900648784470
:100720000690064878446A4607900F9909A800F099
:100730001BFA0DB05DF814FB670400007F04000095
:100740002DE9FF5F1D464FF0FF3B91464FF000083B
:100750005F46D5E90146A96901987F1C8847296A47
:10076000824688470028F6D1BAF1FF3F0CD0002E10
:1007700024F4C06419DD600614D5BAF12B0F09D03A
:10078000BAF12D0F0ED103E0584604B0BDE8F09F3A
:1007900044F48064A96901987F1C8847761E8246CC
:1007A000002E02DDBAF1300F03D0B9F1000F26D0D0
:1007B00032E0A969761E01987F1C44F400748847D2
:1007C000002E824605DDBAF1780F06D0BAF1580F37
:1007D00003D0B9F1000F10D01EE0B9F1000F02D024
:1007E000B9F1100F18D1A969761E01987F1C24F465
:1007F000007488478246102002E0082000E00A20AA
:10080000814609E0A96908FB0908761E01987F1C4A
:1008100044F4007488478246002E05DD4946504660
:1008200000F08EF90028EDDAE96901988847A00503
:1008300002D46FF00100A8E7E00725D1600613D5C8
:10084000600502D5C8F1000000E0404629680A1D95
:100850002A600968220501D5087015E0220701D534
:10086000088011E008600FE02868011D2960006819
:10087000210502D580F8008006E0210702D5A0F806
:10088000008001E0C0F8008038467EE740EA0103BE
:1008900010B59B070FD1042A0DD310C808C9121F29
:1008A0009C42F8D020BA19BA884201D9012010BD63
:1008B0004FF0FF3010BD1AB1D30703D0521C07E030
:1008C000002010BD10F8013B11F8014B1B1B07D194
:1008D00010F8013B11F8014B1B1B01D1921EF1D105
:1008E000184610BD10B5431C02E010F8011B71B191
:1008F0008107FAD14FF0013202C88C1A8C4314EAF6
:10090000C211F9D0C01A0A0603D0C01E10BDC01A09
:1009100010BD0A0401D0801E10BD0902FCD0401E8B
:1009200010BD032A40F2308010F0030C00F0158057
:1009300011F8013BBCF1020F624498BF11F801CBE2
:1009400000F8013B38BF11F8013BA2F1040298BF47
:1009500000F801CB38BF00F8013B11F0030300F0B1
:100960003381083AC0F0088051F8043B083A51F846
:1009700004CBA0E80810F5E7121D5CBF51F8043B5A
:1009800040F8043BAFF30080D20724BF11F8013BCD
:1009900011F801CB48BF11F8012B24BF00F8013B2F
:1009A00000F801CB48BF00F8012B70474FF0000260
:1009B00000B5134694469646203922BFA0E80C5055
:1009C000A0E80C50B1F12001BFF4F7AF090728BF30
:1009D000A0E80C5048BF0CC05DF804EB890028BFAC
:1009E00040F8042B08BF704748BF20F8022B11F0D5
:1009F000804F18BF00F8012B704770477047704751
:100A000070472DE9F0470D4699469246044600F19D
:100A100024080168880604D5E06921F010012160EE
:100A200000E00120A84201DD471B00E00027A1698A
:100A30007A1902EB0900081AA0612078C00602D4D6
:100A40002046FFF7E3FC002608E0D4E901211AF86C
:100A500006009047206A401C761C20624E45F4DB5D
:100A60002078C0060AD52046FFF7D0FC06E0D4E97E
:100A7000012130209047206A401C2062381EA7F1D7
:100A80000107F4DC07E0D4E9012118F805009047DC
:100A9000206A401C2062281EA5F10105F3DC2046D7
:100AA000FFF7CAFC2078000602D50220BDE8F087D7
:100AB0000120FBE701694A1C02610878704700B514
:100AC0008FB0CDE901310021059105497944CDE987
:100AD000031011466846FFF751FD0FB000BD00003E
:100AE000E5FFFFFF0A6802F8010B0A60704710B5C6
:100AF000436913B1AFF3008001E0FFF7AEFC0120C2
:100B000010BD127800F124010A7000224A700122FF
:100B1000EDE711684FF0FF32E9E70000074B70B5D1
:100B20000D467B44FFF7CBFF0446284600F042FA0F
:100B300010B14FF0FF3070BD204670BD37A20000ED
:100B40003A2800D2303820F02002412A01D3A2F105
:100B50003700884201D34FF0FF30704702681144DC
:100B60001378016018467047D16005497944516196
:100B700004497944116200211161114600F060B806
:100B8000EDFFFFFFB7000000426842B1016811F8B5
:100B9000013B23B1521EC0E90012184670470121E3
:100BA000C160881E704742685AB1C368016843B982
:100BB00083688B4205D0491E521CC0E900120020F8
:100BC00070474FF0FF30704710B5203AC0F00B80EF
:100BD000B1E81850203AA0E81850B1E81850A0E841
:100BE0001850BFF4F5AF5FEA027C24BFB1E818509B
:100BF000A0E8185044BF18C918C0BDE810405FEA0B
:100C0000827C24BF51F8043B40F8043B08BF704786
:100C1000D20728BF31F8023B48BF11F8012B28BF8B
:100C200020F8023B48BF00F8012B704710B504467E
:100C300000F0EAF90068005D00F0010010BD00005E
:100C40002DE9F34F4FF0000A0C4656468DB00120B7
:100C50000C9001F10C000B9062690B9801219047F8
:100C6000051E2DD0252D2CD0216A8847C0B1626980
:100C70000B9801219047216A88470028F7D16269C3
:100C8000411E0B98904700E0761CA1690D9888479B
:100C9000216A88470028F7D1E1690D988847DBE78A
:100CA000A1690D988847A842074601D1761CD3E771
:100CB000E1690D9888477F1C02D1BAF1000F6FD00F
:100CC0006BE162690B9800273D46394690472A2818
:100CD00004D162690B98012190470125DFF8D08289
:100CE00062690B9801219047A0F130010A290AD2CC
:100CF0004745E5DC07EB870100EB4107303FDFD4D8
:100D000045F01005ECE7E90601D46FF000476C28C8
:100D10000AD04C2814D0682815D06A280DD0742821
:100D20001CD07A281AD01DE062690B9801219047E7
:100D30006C2802D045F0040514E045F002050DE0F2
:100D400045F020050AE062690B9801219047682868
:100D500002D045F0080505E045F4006562690B988E
:100D600001219047C4E9015765283DD019DC582876
:100D70007AD00CDC452837D004DC252826D0412841
:100D80009ED131E046282FD0472899D12CE05B280E
:100D900077D0612828D063287CD0642823D15AE0FA
:100DA000F6E06F2848D008DC66281DD067281BD0E5
:100DB000692821D06E2816D127E0702845D07328E5
:100DC00068D0752847D078280DD14DE0A1690D98DD
:100DD0008847252805463FF469AFE1690D988847A3
:100DE0006D1C3FF46AAFD8E00D9923466A466FF058
:100DF0000100AFF30080C5E045F0400023464FF00E
:100E000000026060A80736D43EE0E8077FF447AFF1
:100E10002068011D21600068290501D506701BE7C7
:100E2000290701D5068017E7A90703D5F117C0E9FF
:100E3000006111E706600FE745F0400023464FF0E0
:100E400008026060A80716D41EE040F60E0125EAED
:100E50000100606016E045F0400023464FF00A02B2
:100E60006060A80707D40FE045F040006060A80765
:100E700008D5234610220D996FF00100AFF30080D2
:100E800080E007E0102223460D996FF00100FFF784
:100E900057FC77E04FF0000963284F46C8464B46A1
:100EA000CB4602D05B2806D038E0E80601D401200A
:100EB000A060012732E06269D4F80CB00B980121E0
:100EC00090475E2807D14FF0010949466269D4F87E
:100ED0000CB00B989047216939B900210A4603AB41
:100EE00043F82120491C0829FADBD8B3216949B30A
:100EF00008F1010862690B98012190475D28F4D13F
:100F0000B9F1000F09D0002003A951F82020D243E5
:100F100041F82020401C0828F7DB03AB206900289B
:100F200020794FEA40701ED05B462246CDF8008003
:100F3000CDE901970D9900286FF0010020DAAFF399
:100F400000801FE0C11703AA00EBD1614B1121F013
:100F50001F0102EB8302411A1368012088400343FA
:100F60001360C7E719E00D99224600286FF00100D1
:100F7000009702DAAFF3008004E0AFF3008001E0F5
:100F8000AFF3008000280ADA401C06D10C9820B18B
:100F90004FF0FF300FB0BDE8F08F5046FAE7E90799
:100FA00001D10AF1010A064400200C9054E6000029
:100FB000CCCCCC0C007B00F080007047754600F074
:100FC00035F8AE4605006946534620F007008546D1
:100FD00018B020B5FFF770F9BDE820404FF00006CB
:100FE0004FF000074FF000084FF0000B21F0070111
:100FF000AC46ACE8C009ACE8C009ACE8C009ACE854
:10100000C0098D467047000010B500F013F8001DB0
:1010100010BD00BF352E010010B50446AFF30080AF
:101020002046BDE81040FFF732B900000048704785
:1010300040D001200048704760D001204FF0013CB3
:1010400050F8042B51F8043B9A4221D1A2EB0C0337
:10105000934313EACC1317D150F8042B51F8043BF7
:101060009A4215D1A2EB0C03934313EACC130BD194
:1010700050F8042B51F8043B9A4209D1A2EB0C031F
:10108000934313EACC13DBD04FF00000704700BF4E
:10109000D01A01BAB1FA81F101F0180122FA01F077
:1010A000CB40C1F12001DBB2C0B2C01A2CFA01F36F
:1010B000D11A914311EAC311E6D17047464910B5E0
:1010C0004A6822F440324A604A6843681A434A60D8
:1010D00001684A6822F480724A6001684A680369BC
:1010E00042EA03224A6001684A6822F040724A607C
:1010F00001684A6883681A434A6001688A6822F472
:1011000000628A6001688A68C3681A438A60816ADB
:101110006FF07062D14201688A6822F070628A6062
:1011200001688A680CD0836A1A438A6001688A68F9
:1011300022F040528A6001688A68C36A1A4301E05B
:1011400022F040528A6001688A6822F002028A60B6
:1011500001688A68037E42EA43028A6090F82010A0
:10116000002901684A680FD042F400624A600168B1
:101170004A6822F460424A6001684A68174C436A30
:1011800004EB43331A4301E022F400624A60016831
:10119000CA6A22F47002CA620168CA6A838B104C60
:1011A00004EB03531A43CA6201688A6822F400728E
:1011B0008A6001688A6890F8303042EA43228A6087
:1011C00001688A6822F480628A6001688A684069DE
:1011D00042EA8020886010BD0023014000E0FFFF4C
:1011E0000000F0FF30B50F4887B0016841F02001E2
:1011F000016000684FF4807400F020000590012029
:10120000CDE9004002900320074D0390694628462F
:1012100000F04EFD00222146284600F02EFE07B0C9
:1012200030BD00003038024000140240FEE7704735
:10123000064908B509684FF4FA52B1FBF2F141438F
:10124000009100BF491E0091FBD208BD00000020A4
:1012500038B50446006800F58050816941F480117A
:101260008161206800F58050806900900120FFF7BF
:10127000DFFF2068009900F58050816138BD026869
:101280000021002A08DB0268120405D40268D20596
:1012900002D50068C0F30D410846704710B5094CEF
:1012A00001E00BF00FFAA06AFFF7E9FF0028F8D180
:1012B00020684FF4803100F5805041614021416148
:1012C00010BD0000180400202DE9F041044621B1B2
:1012D0004FF40060E060C000A060E06900260028D4
:1012E00061D035462068402702683A490A40D4E96F
:1012F00002131943294341F400711143016020682E
:101300000568012000F05EF92068056020684760EC
:1013100020684568012000F055F920684560206884
:1013200086602068C660206881694FF6417211406E
:1013300041F08001816120688569012000F042F957
:10134000206885612068C6612068C569012000F0B9
:1013500039F92068C561206800F5805081691E4A0E
:1013600011401E4A0A438261206800F58050856959
:10137000012000F027F9206800F580508561206881
:10138000174900F580500160206800F5805005681D
:10139000012000F017F9206800F580500560A06971
:1013A000012803D009E04FF480659BE7206800F531
:1013B0008050C1690B4A1143C16160690A4A818842
:1013C00011640178D0F8010041EA00205064BDE8C2
:1013D000F08100000F8120FF233FDEF8040020028F
:1013E0008020C102400001000080024010B54FF48F
:1013F000A07100200BF052FF0A4CA02120600020B9
:101400000BF04CFF606043F6883100200BF046FF84
:10141000A06041F6C45100200BF040FFE0600020C6
:1014200010BD00002800002070B5B3F5804F05D036
:101430006FF0704140F82210002070BD50F822304B
:10144000084C2340D1E9004544EA05148D688E8993
:101450002D0245EA064589692C430C431C4340F89C
:101460002240E9E70000F0CFF0B50C6850F82450B6
:10147000114A1540D1E90123D1E903671A433E43DC
:1014800032434E6932438E693243CE6932430E6A2B
:1014900032434E6A32438E6A3243CE6A3243CE6B57
:1014A000096B32430A432A43082B01D142F0400220
:1014B00040F824200020F0BD8000F0FF30B500EBA4
:1014C00082004268D1E9003443EA04138C688D89B4
:1014D000240244EA054423430C8A084D02F04042AA
:1014E00005EB045423430C7D6D0105EB046489690D
:1014F00023430B4313434360002030BD0000F0FF43
:1015000070B504004FF0000603D0206C002510B128
:1015100007E0012070BD204600F01CF8656484F8E7
:101520003C50206CC00610D4206C20F4885040F051
:10153000020020642046FFF7C1FD6564206C20F0A6
:10154000020040F00100206400E0012684F83C50D5
:10155000304670BD104800B5026887B0002142F4E3
:1015600080720260006800F4807005900A481438A8
:10157000026842F001020260006800F0010005907C
:10158000202000900320CDE901016946034800F0C6
:101590008FFB07B000BD000044380240000002404D
:1015A00090F83510022903D0802141650120704751
:1015B000052180F835100068016821F00101016003
:1015C0000020704770B5044600F062FC0546601CC0
:1015D00002D004480078044400F05AFC401BA042AA
:1015E000FAD370BD040000202DE9F04390F8455077
:1015F0000024012D0DD04FF0010980F845900225FF
:1016000080F8445044F2F45C4FF000485F1E816261
:1016100016E00220BDE8F08301EB4415C5F8008018
:10162000C4EBC41606EB460602EB8606C5E901C606
:10163000BC4203D205F12006EE6000E0E960641CC4
:101640009C42E9D3026802F58052D16080F8449050
:10165000002180F845100846DCE72DE9F04390F8BA
:1016600045400025012C0BD04FF0010C80F845C0FF
:10167000022480F844404FF480195F1EC1621BE0D1
:101680000220BDE8F08301EB4514C4F80090C5EBDF
:10169000C51606EB460602EB8606A660C6691EB9AD
:1016A000266846F440062660BD4203D204F12006B7
:1016B000E66000E0E1606D1C9D42E4D3026802F543
:1016C0008052116180F844C0002180F8451008461E
:1016D000D7E710B590F84510012913D0012380F801
:1016E0004530022180F84410816A0A680024002AEB
:1016F00027DB0A68D20518D5826B521C8263012A47
:1017000002D002E0022010BD016341630A68C2F307
:101710000D42121FC263026B92680264C96840F8EE
:10172000281F03774477002010BD0A68920503D56F
:101730008363C0E90C1402E0826B521C8263C968A7
:10174000816200F8443F4470012010BD2DE9FC4740
:101750004FF000060400B146009603D094F8440010
:1017600018B107E00120BDE8FC8784F845602046F9
:1017700000F0E0F86548016841F4804101600068CC
:1017800000F4804001906248016821F4000101608A
:101790000168226A11430160206800F580500168E9
:1017A00041F00101016000F073FB05464FF4FA7748
:1017B00008E000F06DFB401BB84203D9032004F899
:1017C000440F67E0206800F580500068C007F0D142
:1017D0002068006920F01C0500F01AFD4D494E4AB2
:1017E0000144914202D245F0080516E04B494C4AAB
:1017F0000144914202D245F00C050EE049494A4AA3
:101800000144914209D3494908444949884202D2D6
:1018100045F0040501E045F01005206805614FF42E
:1018200000420021204600F008FA0125A8BBFF2055
:10183000FFF7C8FE606888B300F02AFB804641F2DB
:1018400088376A460121204600F0F0F800F020FBBE
:10185000A0EB0800B84217D800984007F1D54FF424
:1018600080520021204600F0E8F9B0B900F010FBEA
:1018700080466A460121204600F0D8F800F008FBB7
:10188000A0EB0800B8420AD901212046FFF71CFD51
:1018900004F8445F0320667065E724E018E00098D0
:1018A0008006E6D56A461F21204600F0BFF8D0B971
:1018B0000098C10603D54FF40061E16000E0E660E6
:1018C000400701D5A66019E04FF48040A06015E004
:1018D000E068A168C00840EA510082B200212046B9
:1018E00000F0ABF930B101212046FFF7EDFC84F8A0
:1018F000445037E740F6FF70FFF764FE4946204644
:10190000FFF7E2FC84F8445000202CE74438024002
:101910000438014000D3CEFEC0E1E40040F1E9FD0F
:1019200040787D0100796CFC005A6202001F0AFABF
:1019300080F0FA0230B5384887B00025016841F0E0
:1019400000710160016801F000710591016841F0CA
:1019500080610160016801F080610591016841F0DA
:1019600000610160016801F000610591016841F0CA
:1019700001010160016801F001010591016841F078
:1019800002010160016801F002010591016841F066
:1019900004010160016801F004010591016841F052
:1019A00008010160016801F008010591016841F03A
:1019B000400101600068032400F04000059086208B
:1019C00000900220CDE901050B20CDE903406946D6
:1019D000124800F06DF9322000906946104800F07E
:1019E00067F94FF4D040009069460E4800F060F966
:1019F0000820009001200394CDE9010569460A48BA
:101A000000F056F9002201213D2000F093FA3D201C
:101A100000F083FA07B030BD3038024000000240C9
:101A20000008024000180240000C02402DE9F04777
:101A3000044690F84400914682281DD0822084F804
:101A40004400206802694FF6FF7502F01C03228AE9
:101A500005EAC2221A434FF4F86303EA81111143E5
:101A600021F0020141F00105056100F011FA06467E
:101A700001274FF480380FE00220BDE8F08700F026
:101A800007FA801B404505D304F8447F00206070AE
:101A90000320F2E720680569E807F0D12068406973
:101AA00081B2C9F8001084F844700020E5E7F8B569
:101AB000044690F84500012839D0012584F84550A6
:101AC000022084F8440020680026016841F00801E3
:101AD00001602068006800902846FFF7A9FB216894
:101AE000009808602068016841F0040101602068E6
:101AF000006800900120FFF79BFB216800980860B8
:101B00002046FFF7A5FB206800F58050816941F46D
:101B100000518161206800F58050816941F0020127
:101B2000816184F8445084F845600020F8BD0220AB
:101B3000F8BDF0B590F845300022012B11D00127F7
:101B400080F84570022380F84430002559B1C46AFA
:101B50002368002B0ADA122100F8441F4570012087
:101B6000F0BD0220F0BD00F8447FF7E740F2F456E4
:101B7000B1420BD9B1FBF6FCB1FBF6F306FB1C1C22
:101B8000BCF1000F00D05B1C012B43D1226842F056
:101B900040522260C26AC1F30C015160C16A0A68F6
:101BA00042F000420A60C16AC968C16234E0D4F8F8
:101BB00000C02CF0405CC4F800C032B9C46AD4F84C
:101BC00000C04CF0805CC4F800C0C46A66605C1E53
:101BD000A24214D1C46AD4F800C04CF0005CC4F82E
:101BE00000C0C3F10104C4EBC41404EB4404D0F8F6
:101BF0002CC001EB8404C4F30C04CCF80440C46A88
:101C0000D4F800C04CF0004CC4F800C0C46A521CA8
:101C1000E468C4629A42CAD3016801F580514A69F6
:101C2000520705D504224A61016801F580514D60D3
:101C300000F8447F45700020F0BD2DE9F0410446D6
:101C400090F8440042281ED0422084F844002068C6
:101C500003694FF6FF7603F01C05238A06EAC323C7
:101C60002B434FF4F86505EA8111194341F0030550
:101C700091B241612068056100F00AF9064601272A
:101C80004FF480380FE00220BDE8F08100F000F949
:101C9000801B404505D304F8447F0020607003207A
:101CA000F2E720680569E807F0D184F84470EBE7B3
:101CB0002DE9F84FDFF88C91002209F1040A0AF1AE
:101CC000040B4FF00F080BF1040E01260B68964031
:101CD0003340B34271D14C68022C01D0122C11D187
:101CE000D40800EB84073D6A5407E40E08FA04FCAC
:101CF00025EA0C05D1F810C00CFA04FC4CEA050CDE
:101D0000C7F820C007685400032591F804C0A54017
:101D10000CF0030CAF430CFA04FC4CEA070CC0F8BF
:101D200000C04F68012F05D0022F03D0112F01D022
:101D3000122F11D18768D1F80CC0AF430CFA04FC04
:101D40004CEA070CC0F808C04768B7430E79C6F3E1
:101D5000001696403E434660C668AE438D68A54077
:101D60003543C5604C68E40065D5374C256845F4BB
:101D700080452560246822F0030504F48044009423
:101D8000324C2E19D6F808789407250F08FA05F476
:101D9000A7432F4CA04201D1002424E02D4CA042A7
:101DA00001D101241FE02C4CA04201D102241AE0F1
:101DB0002A4CA04202D1032415E03CE0284CA0426A
:101DC00001D104240FE0274CA04201D105240AE0F0
:101DD000254CA04201D1062405E0244CA04201D1AB
:101DE000072400E00824AC403C43C6F80848D9F872
:101DF00000404D464E689C43F60300D51C432C60C2
:101E0000DAF8004055464E689C43B60300D51C43A3
:101E10002C60DBF800405D464E689C43F60200D51E
:101E20001C432C60DEF8004075464E689C43B602A9
:101E300000D51C432C60521C102AFFF446AFBDE8AD
:101E4000F88F0000003C014044380240003001405F
:101E5000000002400004024000080240000C024062
:101E6000001002400014024000180240001C024012
:101E70000069084000D0012070470AB181617047B5
:101E80000904FBE701480068000C7047002004E0EB
:101E90000148806870470000040000200248816803
:101EA000027811448160704704000020094810B591
:101EB000016841F400710160016841F480610160D2
:101EC000052000F057F80F2000F006F800F024F885
:101ED000002010BD003C024070B50D4D04464FF48B
:101EE0007A712878B1FBF0F00A490968B1FBF0F08B
:101EF00000F07EFF48B9102C07D200222146501E68
:101F000000F018F800206C6070BD012070BD00006A
:101F100004000020000000207047002809DB00F0CA
:101F20001F02012191404009800000F1E020C0F82B
:101F300000117047F0B40E4B1B68C3F30223C3F1CA
:101F40000704042C00D904241D1D072D01D20023F1
:101F500000E0DB1E012606FA04F56D1E0D409D40D3
:101F60009E40761E164045EA0601F0BC05F0DABD3B
:101F70000CED00E0064A00F0070110684FF6FF0381
:101F8000184040EA012003490843106070470000F0
:101F90000CED00E00000FA050149012008627047DD
:101FA00000000E422DE9F843044600684FF0010995
:101FB000C1074FF0000501D1400726D5DFF80C819D
:101FC000C8F86850FFF764FF0646414F04E0FFF78A
:101FD0005FFF801B022857D838680001F7D460687B
:101FE000217A800140EA0170394984310860C8F8DB
:101FF0006890FFF74DFF064604E0FFF749FF801B9E
:10200000022841D838680001F7D52078800752D5DA
:102010002F484030016841F08051016000682D4F29
:1020200000F080500090386840F480703860FFF70E
:102030002FFF064604E0FFF72BFF801B022823D862
:102040003868C005F7D5224E7036306810F44070FD
:1020500020D0A18901F4407181421BD030681E4913
:1020600020F44070C1F800900D6030603068C00707
:1020700010D0FFF70DFF054641F2883707E0FFF764
:1020800007FF401BB84202D90320BDE8F88330683F
:102090008007F4D5E0680E49C0F301220831032A15
:1020A0000BD0086820F4F81008603068A189C1F3EB
:1020B0000B01084330600020E7E70A68074B22F471
:1020C000F812184002430A60EFE7000000004742A0
:1020D0000038024000700040400E4742FFFCFF0FF6
:1020E0002DE9F0470D46040065D0DFF81491D9F8CA
:1020F0000000EFB200F00F00A84207D289F800708C
:10210000D9F8000000F00F00A84254D120683D4EDD
:10211000810712D5400703D5306840F4E0503060A5
:102120002078000703D5306840F4604030603068A4
:10213000A16820F0F000084330602078C0072DD05F
:10214000304960680839012812D0022813D00328CA
:1021500011D00968890700292DDA316821F00301BF
:1021600001433160FFF794FE804641F2883A0EE069
:1021700009688903EFE709688901ECE7FFF788FE42
:10218000A0EB0801514502D90320BDE8F087306873
:10219000616800F00C00B0EB810FEFD1D9F80010AE
:1021A000484601F00F01A94207D90770006800F006
:1021B0000F00A84201D00120E7E72078400705D5AD
:1021C0003068E16820F4E050084330602078000770
:1021D00006D53068216920F4604040EAC1003060D3
:1021E00000F03CF83168084AC1F30311515CC84063
:1021F000064908600F20FFF76FFE0020C5E70000CA
:10220000003C024008380240FA400208000000206A
:10221000014800687047000000000020044805499C
:1022200000680968044AC1F38221515CC8407047C4
:1022300000000020083802400A410208044805490D
:1022400000680968044AC1F34231515CC8407047D4
:1022500000000020083802400A410208154810B565
:10226000006810F00C01144813D0431004290FD05B
:1022700008290ED10F4C241F216801F03F0221686C
:10228000490207D52068C0F38810A0FB030106E0CF
:10229000184610BD2168C1F38811A1FB000100237D
:1022A000FEF71DF82168C1F30141491C4900B0FB4C
:1022B000F1F010BD083802400024F4002DE9F84F79
:1022C000040073D02078BD4DC00748D0BB4808300B
:1022D0000168C1F38101012908D00068C0F38100C1
:1022E00002280AD1281D0068400206D5286880030C
:1022F00035D560680028E4D031E06068B0F5803FF3
:1023000010D0B0F5A02F286810D020F480302860BD
:10231000286820F4802028606068A0B1FFF7B8FD2D
:1023200006460CE0286840F48030F4E740F4802052
:102330002860F7E7FFF7ACFD801B642872D8286897
:102340008003F7D50BE0FFF7A3FD064604E0FFF797
:102350009FFD801B6428F1D828688003F7D420787B
:10236000DFF85C9280074FF0000A3ED593480830B2
:10237000016811F00C0F09D00068C0F38100022839
:102380000BD18E48001D0068400206D428688007E3
:1023900015D5E068012809D111E0E068B8B1012045
:1023A000C9F80000FFF774FD064605E003E1FFF7FA
:1023B0006FFD801B0228C1D828688007F7D52868E0
:1023C000216920F0F80040EAC10028600DE0C9F85A
:1023D00000A0FFF75DFD064604E0FFF759FD801BF6
:1023E00002281FD828688007F7D42078000722D554
:1023F000724F74496069743770B101200860FFF74B
:1024000047FD064604E0FFF743FD801B022809D87C
:1024100038688007F7D50EE0C1F800A0FFF738FD57
:10242000064605E081E0FFF733FD801B02287CD8DB
:1024300038688007F7D42078400769D5DFF87CB189
:102440004FF000080BF1400BDBF80000C0000CD48B
:10245000DBF8001041F08051CBF80010DBF80000F1
:102460004FF0010800F080500090574F3868C005C9
:102470000FD4386840F480703860FFF709FD0646D5
:1024800004E0FFF705FD801B02284ED83868C00520
:10249000F7D54A4FA068703701280FD00528386853
:1024A00010D020F001003860386820F00400386057
:1024B000A068B0B1FFF7ECFC06460EE0386840F0CB
:1024C0000100F4E740F004003860F7E7FFF7E0FCB4
:1024D000811B41F28830814265D838688007F5D584
:1024E0000DE0FFF7D5FC064606E0FFF7D1FC811BA7
:1024F00041F28830814256D838688007F5D4B8F167
:10250000000F05D0DBF8001021F08051CBF800104F
:10251000A069C8B3294908310968C1F381010229BA
:1025200049D00228504607D000E03CE0C9F86000DE
:10253000FFF7AEFC044639E04F46C9F86000FFF7EC
:10254000A7FC064604E0FFF7A3FC801B02282AD85C
:1025500028688001F7D4D4E907010843A16A1B4A1F
:10256000490802EB0141626A41EA8211084394F88A
:102570002C1040EA01611148001D016001203866FD
:10258000FFF786FC044605E013E0FFF781FC001B23
:10259000022808D828688001F7D50AE0FFF778FC00
:1025A000001B022802D90320BDE8F88F28688001AB
:1025B000F4D40020F8E70120F6E7000000380240DC
:1025C00000004742800E4742007000400000FFFFBD
:1025D00070470068503050F8210070470068503054
:1025E00040F82120704700000449D1F8A80218B132
:1025F0000020C1F8A80270470120FAE7008042429B
:1026000010B504460068C16849050CD580684004CF
:1026100009D52046FFF7E8FF2068C16801F0800176
:1026200061F49061C16003494FF4800008600120AB
:10263000607710BD143C014001A0FDF7C7BE00004B
:10264000414C41524D2041210D0A000010B5044675
:102650000068C168C9050CD58068C00409D520464A
:10266000FFF7EAFF2068C16801F0800161F4C071E2
:10267000C1602068C16889050CD58068800409D5CF
:102680002046FFF7A5FF2068C16801F0800161F4D2
:102690002071C16003494FF4003008600120607769
:1026A00010BD0000143C014070B5040002D0607FF2
:1026B00010B106E0012070BD00202077204600F018
:1026C00049F8022060772168CA20486221685320B7
:1026D0004862204604F0F9FAFF25042618BB20685A
:1026E00081681B4A114081602068816862681143DB
:1026F000D4E904231A43114381602168E06808612A
:1027000020680169228941EA024101612068C168AB
:1027100021F08001C16020688068800607D42046CF
:1027200000F018F918B1206845626677C2E72068A2
:10273000016C21F4802101642068016CA2691143BD
:1027400001642068456201206077002070BD0000B0
:10275000BFFF8FFF10B5104892B00024016841F010
:1027600080510160006800F080501090FFF714FC69
:10277000042006940090012468460294FFF79EFD11
:1027800002200C90C0010F900CA8FFF70BFC03482F
:10279000046012B010BD0000403802403C0E4742B9
:1027A0002DE9F0470446007F0B4601281FD04FF06B
:1027B000010984F81C9002206077DAB19878D97802
:1027C00040EA014558781978000240EA4130054353
:1027D0002168CA204862216853204862204604F0DC
:1027E00074FA0026FF274FF0040860BB1AE00220AD
:1027F000BDE8F0875878C10603D500F0EF000A3035
:102800005870D87804F056FA0204587804F052FA56
:1028100042EA0022987804F04DFA0243187842EA1E
:102820004035D5E70F480540206845602068C168FD
:1028300021F08001C1602068806880060AD42046AB
:1028400000F088F830B12068476284F81D80267750
:102850000120CDE72068476284F81D90267700208C
:10286000C6E700003FFFFF002DE9F0470446007F68
:102870000D46012827D04FF0010A84F81CA0022041
:1028800060772068002680684FEA4060F2B1002837
:1028900000DBEE70A878297840EA01476878E9788B
:1028A000000240EA014007432168CA2048622168CB
:1028B00053204862204604F008FA4FF0FF084FF01A
:1028C0000409A0BB16E00220BDE8F087002800DB69
:1028D000EE70287804F0EEF90204687804F0EAF962
:1028E00042EA0022A87804F0E5F90243E87842EAD7
:1028F0000047D9E7164807402068076020688168CC
:1029000021F480218160D5E90310014320688268A9
:10291000114381602068C16821F08001C160206896
:10292000806880060BD4204600F014F838B1216886
:10293000C1F8248084F81D9026770120C4E721681F
:10294000C1F8248084F81DA026770020BCE7000091
:102950007F7F7F0070B505460068C16821F0A00147
:10296000C160FFF795FA04464FF47A7606E0FFF768
:102970008FFA001BB04201D9032070BD2868C068DF
:102980008006F4D5002070BD70B5040004D094F822
:102990005100002510B106E0012070BD84F85050B0
:1029A000204600F037F8022084F8510020680168C2
:1029B00021F040010160D4E901010843D4E9031288
:1029C0001143084361690843218B01F400710843F6
:1029D000E1690843216A0843A16A08432168086045
:1029E000A069042101EA1040616A08432168486037
:1029F000A06AB0F5005F02D12168E06A0861206832
:102A0000C16921F40061C1616565012084F851004C
:102A1000002070BD114800B5016887B041F0020187
:102A20000160006800F0020005900C481430016855
:102A300041F4805101600068012100F4805005904C
:102A4000382000900220CDE9010103900520049078
:102A500069460348FFF72CF907B000BD3038024043
:102A6000000402402DE9F84F044690F8500001257B
:102A700000270A9E984692468B4601280FD00120D7
:102A800084F85000FFF704FA94F851108146626808
:102A9000404601290CD0B2F5827F07D102E0022026
:102AA000BDE8F88FA2680AB9042901D0022703E122
:102AB000BBF1000F3CD0BAF1000F39D0B8F1000FD4
:102AC00036D094F85110042902D0052184F8511011
:102AD00000216165C4F838A0A4F83E80A4F83C80C9
:102AE000C4F830B0A4F83680A4F83480216461645E
:102AF000A16A4FF40058414509D121680A6822F4BF
:102B000000520A6021680A6842F400520A60216893
:102B10000A68520603D40A6842F040020A60E1687B
:102B2000B1F5006F616805D0F1B301284DD08DE09B
:102B30000127C1E009B1012840D1206B216800883C
:102B4000C860206B801C2063E08E401EE08635E06C
:102B500020688168890717D5E18EA9B1012D13D1AD
:102B6000216B0988C160206B801C2063E08E401EB1
:102B7000E086E08E002538B9A06A404504D120687F
:102B8000016841F48051016020688168C9070DD057
:102B9000E18F59B1C068A16B0880A06B801CA06355
:102BA000E08F401EE08700E00FE00125FFF770F99D
:102BB000A0EB0900B04201D3701C5DD1E08E00286B
:102BC000C6D1E08F0028C3D146E0206B2168007891
:102BD0000873206B401C2063E08E401EE08635E0C9
:102BE00020688168890717D5E18EA9B1012D13D11D
:102BF000216B09780173206B401C2063E08E401E1E
:102C0000E086E08E002538B9A06A404504D12068EE
:102C1000016841F48051016020688168C9070BD0C8
:102C2000E18F49B1C068A16B0870A06B401CA06324
:102C3000E08F401EE0870125FFF72AF9A0EB09008D
:102C4000B04202D3701C01D016E0AEB1E08E002875
:102C5000C6D1E08F0028C3D1A06A404510D101221F
:102C6000334611462046CDF8009004F029F928B1EA
:102C7000606D40F00200606503271DE02068C068B9
:102C800020688168C90607D5616D41F00201616560
:102C90004FF6EF71816001274A463146204604F025
:102CA000E3F818B101272020606505E0A06818B995
:102CB0002068C16880680090012084F851000020DD
:102CC00084F850003846EBE670B515460E46040011
:102CD00003D094F8490010B107E0012070BD002036
:102CE00084F84800204600F01BF804F10801206831
:102CF000FEF7BAFB3146A2682068FEF7DFFBD4E995
:102D000001022946236BFEF78FFBA168206850F86B
:102D1000212042F0010240F82120002070BD000077
:102D2000284810B5016886B041F0010101600068D3
:102D300000F00100059023480838016841F00801BF
:102D40000160016801F008010591016841F010017E
:102D50000160016801F010010591016841F0200156
:102D60000160016801F020010591016841F0400116
:102D700001600068694600F0400005904CF2337035
:102D800000900220019001200290032003900C206B
:102D900004900D48FEF78CFF4FF680700090694656
:102DA0000A48FEF785FF4FF48054694608480094AE
:102DB000FEF77EFF694607480094FEF779FF06B0EC
:102DC00010BD000038380240000C024000100240E4
:102DD00000140240001802404FF0E0210428086966
:102DE00003D020F004000861704740F00400FAE7C7
:102DF00010B5401EB0F1807F01D3012010BD4FF00F
:102E0000E02460610F21601704F08CFE0020A061B7
:102E100007202061002010BD7047704710B50400E6
:102E200003D094F83D0010B107E0012010BD002050
:102E300084F83C00204600F00DF8022084F83D00A4
:102E4000211D206804F02EFA012084F83D000020A6
:102E500010BD000008B500680B49884212D10B482C
:102E6000016841F0020101600068032200F00200E5
:102E7000009001211D20FFF75DF8BDE808401D20EE
:102E8000FFF74BB808BD0000000400404038024086
:102E90000168CA6842F00102CA600068816801F0F6
:102EA0000701062903D0016841F0010101600020FB
:102EB0007047704770B50446006801694FF000051F
:102EC000C943890715D4C168C943890711D4E91ECC
:102ED000016101202077206880698007204602D0A8
:102EE000FFF7E7FF04E000F098F8204600F096F8BE
:102EF000257720680169C943490717D4C168C943C8
:102F0000490713D46FF00401016102202077206883
:102F1000806910F4407F204602D0FFF7CAFF04E02A
:102F200000F07BF8204600F079F8257720680169E9
:102F3000C943090716D4C168C943090712D46FF001
:102F400008010161042020772068C06980072046BD
:102F500002D0FFF7AEFF04E000F05FF8204600F07B
:102F60005DF8257720680169C943C90617D4C1688F
:102F7000C943C90613D46FF01001016108202077FE
:102F80002068C06910F4407F204602D0FFF791FF0F
:102F900004E000F042F8204600F040F82577206871
:102FA0000169C943C90708D1C168C943C90704D128
:102FB000891E0161204600F033F820680169C94389
:102FC000090609D4C168C943090605D46FF0800118
:102FD00001612046FFF720FF20680169C9434906C7
:102FE00009D4C168C943490605D46FF040010161A5
:102FF000204600F021F820680169C94389060BD4F6
:10300000C168C943890607D46FF0200101612046D9
:10301000BDE87040FFF701BF70BD7047704700000A
:103020000349884203D1034801680A3101607047AF
:1030300060040020980100207047704710F8391F85
:10304000407808437047000070B502680446106875
:10305000D168536910F00F0F50D003F0010501F44F
:10306000907635435DD0C20705D0CA0503D5E26B23
:1030700042F00102E263420705D5DA0703D0E26BB2
:1030800042F00202E263820705D5DA0703D0E26B61
:1030900042F00402E263020705D5DA0703D0E26BCF
:1030A00042F00802E263E26B002A33D0800604D5C6
:1030B000880602D5204604F099F920684069E16B42
:1030C000C0F38010090700D428B3204604F080F92B
:1030D0002068416949061AD5416921F040014161E2
:1030E000606BA0B11B490165606BFEF759FA0028BF
:1030F00010D0606B016DBDE870400847830610D5A5
:103100008B060ED52046BDE8704004F06FB920460E
:10311000FFF793FF70BD2046FFF78FFF0020E063AD
:1031200070BD030606D50B0604D52046BDE87040E9
:1031300004F0FEBA4006F3D54806F1D5D168204622
:1031400021F04001D160202184F8391000F0CAF844
:1031500070BD0000C173010870B5040004D094F87C
:103160003900002510B106E0012070BD84F8385008
:10317000204600F023F8242084F839002068C16834
:1031800021F40051C160204604F07CF920680169F7
:1031900021F4904101612068416921F02A014161D7
:1031A0002068C16841F40051C160E563202084F8C3
:1031B000390084F83A00002070BD000010B50068A6
:1031C0001A4986B088422FD11948016841F001019F
:1031D0000160006800F00100059015481430016896
:1031E00041F0100101600068012100F0100005901D
:1031F0004FF4007000900220CDE9010103900720F8
:103200000C4C049069462046FEF752FD21150091B2
:1032100069462046FEF74CFD2520FEF77EFE032280
:1032200011462520FEF786FE06B010BD00100140B5
:10323000303802400000024090F83A30202B22D172
:10324000F9B1F2B190F83830012B1CD0816282853F
:10325000C2850021C163222280F83A2080F838100C
:103260000168CA6842F48072CA6001684A6942F023
:1032700001024A610068C16841F02001C16000207C
:1032800070470120704702207047000030B5006889
:10329000114988420CD1114A5088010408D41146C2
:1032A000440409784FF0000306D50A2901D0538061
:1032B00030BD40F400400DE00D2909D0C0F30D04ED
:1032C000074D401C80B229555080C728EFD830BD2B
:1032D00040F48040508030BD0010014014000020B8
:1032E000600200207047FEE770B5144886B00025E4
:1032F000016841F001010160016801F001010591DF
:10330000016841F0100101600068032400F0100022
:10331000059002200126CDE90204CDE90065694649
:103320000748FEF7C5FC1C2003948DE86100694640
:103330000448FEF7BDFC06B070BD00003038024006
:1033400000000240001002402DE9F04101262E4C01
:103350002E4F2F4D01281DD02078A0B110212846D6
:10336000FEF786FDC0B108212846FEF781FD98B121
:1033700004212846FEF77CFD70B101213846FEF796
:1033800077FD012808D010212846FEF771FD01289D
:1033900026D037E02670E1E70A2004F07BFD00200C
:1033A000207010212846FEF763FD80B108212846D1
:1033B000FEF75EFD70B104212846FEF759FD58B1B5
:1033C00001213846FEF754FD012807D01AE00120FC
:1033D000BDE8F0810220FBE70320F9E70420F7E7CE
:1033E00008212846FEF744FD01280BD10421284678
:1033F000FEF73EFD012805D101213846FEF738FDD4
:1034000000B926700020E3E72400002000000240FD
:103410000010024010B51F2000F040F8C0F38200F9
:1034200010BD00007CB5194D0024C5F88C42322037
:1034300005F5237504F02EFD01212960144802785A
:103440008DF8002042788DF8012082788DF80220D6
:10345000C2788DF8032002798DF8042040798DF828
:1034600005000D480B4AC0E900218A038260CA02A8
:10347000C26004826A46C0E90521C905C0E9074166
:10348000FEF764F9002800D001207CBD0080414295
:10349000A0BE0120008002401804002008B50146AB
:1034A0006A460248FEF7C2FA009808BD18040020D8
:1034B0002DE9F0431A4E8146002430887588454333
:1034C000B088A0F5D041043903D0A0F5144181396A
:1034D00002D1B07901280AD00021084603F0D2F9C0
:1034E00003F088FB1FFA89F04FF0D84113E0002069
:1034F000B0712A2777814FF02B08A6F80C8001467F
:1035000003F0C0F90120B071A6F80A80B781E7E79F
:10351000A1F88000641CAC42FAD3BDE8F08300003F
:10352000B80300202DE9F04F6D492A232B24F02702
:10353000898847F2897945F2105A4FF4305B4FF48D
:10354000285E4FF4487549F2413C4FF4A0767A006A
:1035500080B363484FF00108614580F8068006801B
:10356000478022D0A1F5A647103F1ED049451CD068
:10357000A1F51447863F18D0A1F51447883F14D011
:10358000A1F5EE47963F10D0A1F5D047043F72D089
:10359000A1F51447813F6ED0514570D1A0F808B015
:1035A000A0F80AE02302838190E02C250581438165
:1035B00084816EE0FFE74A484FF00008614580F8DB
:1035C00006800780468023D0A1F5D047043F1FD056
:1035D000A1F5A647103F1BD0A1F51447813F17D096
:1035E000494515D0A1F51447863F11D0A1F51447E0
:1035F000883F0DD0A1F5EE47963F09D0514526D121
:10360000A0F808B0A0F80AE04FF42C5181812DE019
:103610002C2505814381A1F5D0438481043B13D03F
:10362000A1F5A643103B0FD0A1F51443813B0BD06D
:10363000A1F51443863B07D0A1F51443883B03D082
:10364000A1F5EE43963B46D10680428043E0A1F5CA
:10365000C856633E06D022210181202141812121CB
:10366000818138E02C210181448183810280458061
:1036700031E000E003E02C250581448108E0A1F55C
:10368000C857633F1ED02223038121234381202377
:103690008381A1F5D043043B1BD0A1F5A643103B89
:1036A00017D0A1F51443813B13D0A1F51443863BF9
:1036B0000FD0A1F51443883B0BD0A1F5EE43963B08
:1036C00007D008E02C270781438184810580428050
:1036D000DFE702804680BDE8F04F002002F0ACBF7B
:1036E000B80300202DE9F047624D92460C46024691
:1036F0004FEA1129A8882946A0F513464B894FEABD
:103700001228413E2BD0A0F5A641103927D0A0F5B4
:10371000EE41893923D0A0F5EE4196391FD0A0F5AE
:10372000AA41103920D02E46A0F5C857B179368865
:10373000B61A761E633F32D0A0F5D047043F4AD078
:10374000A0F51447813F46D0A0F51447863F55D0D9
:10375000A0F51447883F51D0012979D079E0184667
:1037600003F03BFA40463DE0184603F036FA404687
:1037700003F027FA6889401C80B203F02EFAD0B219
:1037800003F01FFAA88903F028FA484603F019FA53
:10379000A889401C80B203F020FAE0B254E001B9DD
:1037A000B2B2184603F019FA160A304603F009FAC5
:1037B000D0B203F006FA304603F003FAD0B203F0B9
:1037C00000FAA88903F009FA484603F0FAF9E0B2D2
:1037D00003F0F7F90EE0012900D1B2B2184603F068
:1037E000FCF9100A03F0EDF9D0B203F0EAF9A88968
:1037F00003F0F3F9484603F0E4F9CEE7184603F086
:10380000ECF9404603F0DDF9D0B203F0DAF928888C
:10381000401EC0F30F2003F0D4F92878401EC0B238
:1038200003F0CFF9A88903F0D8F9484603F0C9F9A5
:10383000E0B203F0C6F96888401EC0F30F2003F021
:10384000C0F9A878401EC0B203F0BBF909E0FFE759
:10385000B2B21146184603F0D7F9A889214603F001
:10386000D3F94FF0D840298920F87E1FA0F802A094
:10387000BDE8F087B80300202DE9F843244D144635
:103880008046AA88DDF820C0A2F5D0401F46043843
:1038900003D0A2F51440813802D1A879012809D0BB
:1038A000A4EB0800401C86B20C461FFA8CF54FF0C2
:1038B000D8492AE02B880846191B0024AC712A2419
:1038C000A3EB08036C812B26491E5B1EAE8189B2D7
:1038D0003A469BB2CDF800C0FFF7CEFF0120A87199
:1038E0006E81AC81BDE8F8832146404602F0CAFFF4
:1038F00003F080F90020494603E0A1F88050401C05
:1039000080B2B042F9D3641CA4B2BC42ECD9E9E75E
:10391000B80300202DE9F04FFF4895B0002501685D
:1039200041F00201016000680EA900F0020013904E
:103930004FF400400E9001200F9010900320119042
:10394000F648FEF7B5F9F648F6494FF02044C0E9CD
:1039500000410621C0E902151021C0E9045185612A
:103960000902C561C0E909518900C0E90B5189010B
:103970004563C0E90E510F20CDE907053C200990B1
:103980000920CDE9000511200D95029003956A46A6
:1039900007A90695E248FFF797F9322004F07AFA72
:1039A0000121002003F030F9322004F073FA0020E6
:1039B00002F010FEDA4A47F28975503249F2864920
:1039C000908049F2884A47F2967B49F2413845F2A5
:1039D000103641F66317FF2806D3A0F57F41FF3963
:1039E00002D0B0F5134F7CD1D32003F0F6F802F0EB
:1039F000E7FD908002F0E4FD908002F0E1FD4FF6DB
:103A0000FF7101EA0020908002F0DAFD91880843FE
:103A10009080404565D0484563D0504561D05845B9
:103A20005FD0042003F0D9F802F0CAFD908002F0C4
:103A3000C7FD908002F0C4FD4FF6FF7101EA00203F
:103A4000908002F0BDFD91880843A0F5054190806B
:103A500052397DD0A84270D0BF2003F0BEF802F0EA
:103A6000AFFD908002F0ACFD908002F0A9FD908047
:103A700002F0A6FD4FF6FF7101EA0020908002F0EF
:103A80009FFD91880843A0F5D0419080043954D01F
:103A9000A0F51441813950D0D42003F09EF802F0F3
:103AA0008FFD908002F08CFD908002F089FD4FF632
:103AB000FF7101EA0020908002F082FD91880843A6
:103AC0009080B04239D04FF45A4003F086F802F0AB
:103AD00077FD90804FF45B4003F07FF802F070FDBB
:103AE00000E02AE04FF6FF7101EA002090804FF4D9
:103AF0005C4003F072F802F063FD91880843908007
:103B0000B0F5004F49D0A0F5AA41103915D0A12039
:103B100003F063F802F054FD908002F051FD4FF67F
:103B2000FF7101EA0020908002F04AFD918808436D
:103B3000A0F5AE41908061392DD080B2404511D0C2
:103B4000B0420FD0A0F5AA4110390BD0B84200E026
:103B50001FE007D0A84205D0484503D0504501D00A
:103B600058451ED1D4F81C0120F00F00C4F81C01E8
:103B7000D4F81C0120F47060C4F81C01D4F81C01B6
:103B800040F00300C4F81C01D4F81C0140F400709C
:103B900025E09580E6E79780E4E745F210509080B5
:103BA000E0E7A0F5D041043903D0A0F5454105393F
:103BB00017D1D4F81C0120F00F00C4F81C01D4F870
:103BC0001C0120F47060C4F81C01D4F81C0140F002
:103BD0000A00C4F81C01D4F81C0140F44060C4F889
:103BE0001C014F48503081884FA0FCF7EFFB4C4838
:103BF0005030808840457CD1CF2002F0EEFF00207D
:103C000002F0DFFFC12002F0DCFF302002F0D9FF1C
:103C1000ED2002F0E2FF642002F0D3FF032002F067
:103C2000D0FF122002F0CDFF812002F0CAFFE82071
:103C300002F0D3FF852002F0C4FF102002F0C1FF84
:103C40007A2002F0BEFFCB2002F0C7FF392002F03D
:103C5000B8FF2C2002F0B5FF002002F0B2FF3420A4
:103C600002F0AFFF022002F0ACFFF72002F0B5FF38
:103C7000202002F0A6FFEA2002F0AFFF002002F0B1
:103C8000A0FF002002F09DFFC02002F0A6FF1B2035
:103C900002F097FFC12002F0A0FF012002F091FF87
:103CA000C52002F09AFF302002F08BFF302002F096
:103CB00088FFC72002F091FFB72002F082FF362074
:103CC00002F08BFF482002F07CFF3A2002F085FFD3
:103CD000552002F076FFB12002F07FFF002002F0B5
:103CE00070FF1A2002F06DFFB62002F076FF0A2066
:103CF00000E09EE002F065FFA22002F062FFF220E9
:103D000002F06BFF002002F05CFF262002F065FF4E
:103D1000012002F056FF0FE030380240000402405C
:103D200068030020040100A0204C43442049443A89
:103D300025780D0A00000000E02002F04EFF0F2061
:103D400002F03FFF2A2002F03CFF282002F039FF5A
:103D5000082002F036FF0E2002F033FF082002F0A8
:103D600030FF542002F02DFFA92002F02AFF43204B
:103D700002F027FF0A2002F024FF0F2002F021FFAB
:103D8000002002F01EFF002002F01BFF002002F0C6
:103D900018FF002002F015FFE12002F01EFF0020B6
:103DA00002F00FFF152002F00CFF172002F009FFB0
:103DB000072002F006FF112002F003FF062002F0A8
:103DC00000FF2B2002F0FDFE562002F0FAFE3C2000
:103DD00002F0F7FE052002F0F4FE102002F0F1FEE2
:103DE0000F2002F0EEFE3F2002F0EBFE3F2002F03B
:103DF000E8FE0F2002F0E5FE2B2002F0EEFE002090
:103E000002F0DFFE002002F0DCFE012002F0D9FE0D
:103E10003F2002F0D6FE2A2002F0DFFE002002F052
:103E2000D0FE002002F0CDFE002002F0CAFEEF20FE
:103E3000DCE2A8427ED1112002F0CFFE782004F00F
:103E400029F8362002F0C9FE002002F0BAFE3A201E
:103E500002F0C3FE052002F0B4FEB22002F0BDFE67
:103E60000C2002F0AEFE0C2002F0ABFE002002F0AF
:103E7000A8FE332002F0A5FE332002F0A2FEB720F8
:103E800002F0ABFE352002F09CFEBB2002F0A5FE46
:103E9000322002F096FEC02002F09FFE0C2002F0BD
:103EA00090FEC22002F099FE012002F08AFEC3209B
:103EB00002F093FE102002F084FEC42002F08DFE7A
:103EC000202002F07EFEC62002F087FE0F2002F0C6
:103ED00078FED02002F081FEA42002F072FEA12024
:103EE00002F06FFEE02002F078FED02002F069FEC2
:103EF000002002F066FE022002F063FE072002F0BE
:103F000060FE0A2002F05DFE282002F05AFE3220F8
:103F100002F057FE442002F054FE422002F051FE0F
:103F2000062002F04EFE0E2002F04BFE122002F0A0
:103F300048FE00E053E0142002F043FE172002F098
:103F400040FEE12002F049FED02002F03AFE0020BF
:103F500002F037FE022002F034FE072002F031FEAC
:103F60000A2002F02EFE282002F02BFE312002F063
:103F700028FE542002F025FE472002F022FE0E20EB
:103F800002F01FFE1C2002F01CFE172002F019FE9A
:103F90001B2002F016FE1E2002F013FE2A2002F063
:103FA0001CFE002002F00DFE002002F00AFE0020A0
:103FB00002F007FEEF2002F004FE2B2002F00DFEBF
:103FC000002002F0FEFD002002F0FBFD012002F0C7
:103FD000F8FD3F2002F0F5FD292002F0E5BAA0F53A
:103FE000144181397ED048457DD1F22002F0F5FDA3
:103FF000182002F0E6FDA32002F0E3FD122002F0FB
:10400000E0FD022002F0DDFDB22002F0DAFD122018
:1040100002F0D7FDFF2002F0D4FD102002F0D1FD08
:10402000002002F0CEFDF82002F0D7FD212002F0A2
:10403000C8FD042002F0C5FDF92002F0CEFD0020ED
:1040400002F0BFFD082002F0BCFD362002F0C5FDE5
:10405000082002F0B6FD3A2002F0BFFD052002F074
:10406000B0FDB42002F0B9FD012002F0AAFDB62097
:1040700002F0B3FD022002F0A4FD222002F0A1FD17
:10408000C12002F0AAFD412002F09BFDC52002F0F4
:10409000A4FD002002F095FD072002F092FDE02033
:1040A00002F09BFD0F2002F08CFD1F2002F089FD25
:1040B0001C2002F086FD0C2002F083FD0F2002F090
:1040C00080FD082002F07DFD482002F07AFD982056
:1040D00002F077FD372002F074FD0A2002F071FD36
:1040E000132001E03DE0E3E002F06BFD042002F06C
:1040F00068FD112002F065FD0D2002F062FD002038
:1041000002F05FFDE12002F068FD0F2002F059FD92
:10411000322002F056FD2E2002F053FD0B2002F05B
:1041200050FD0D2002F04DFD052002F04AFD472014
:1041300002F047FD752002F044FD372002F041FDFA
:10414000062002F03EFD102002F03BFD032002F0AD
:1041500038FD242002F035FD202002F032FD002041
:1041600044E1112002F039FD142003F093FED02029
:1041700002F033FD072002F024FD422002F021FD71
:104180001C2002F01EFDD12002F027FD002002F0CD
:1041900018FD102002F015FD102002F012FDD220B3
:1041A00002F01BFD012002F00CFD112002F009FDC0
:1041B000E42002F012FDA02002F003FDF32002F043
:1041C0000CFD002002F0FDFC2A2002F0FAFCC020C9
:1041D00002F003FD102002F0F4FC3B2002F0F1FCA1
:1041E000002002F0EEFC022002F0EBFC112002F0B5
:1041F000E8FCC52002F0F1FC032002F0E2FCC8203C
:1042000002F0EBFC002002F0DCFC352002F0D9FCCF
:10421000232002F0D6FC072002F0D3FC002002F09D
:10422000D0FC042002F0CDFC452002F0CAFC532053
:1042300002F0C7FC772002F0C4FC702002F0C1FC41
:10424000002002F0BEFC042002F0BBFC362002F08D
:10425000C4FC0A2002F0B5FC3A2002F0BEFC552056
:1042600002F0AFFC2A2002F0B8FC002002F0A9FC0A
:10427000002002F0A6FC012002F0A3FC3F2002F087
:10428000A0FC2B2002F0A9FC002002F09AFC0020E8
:1042900002F097FC012002F094FCE02002F091FC77
:1042A000782003F0F7FD292002F097FC01F004B913
:1042B00050457CD1E02002F090FC002002F081FC0F
:1042C0001B2002F07EFC1F2002F07BFC0A2002F083
:1042D00078FC0F2002F075FC072002F072FC3C20F5
:1042E00002F06FFC382002F06CFC492002F069FCFF
:1042F000002002F066FC0C2002F063FC0B2002F0B0
:1043000060FC152002F05DFC172002F05AFC0F2023
:1043100002F057FCE12002F060FC002002F051FCAA
:10432000192002F04EFC1B2002F04BFC042002F08E
:1043300048FC0F2002F045FC042002F042FC302033
:1043400002F03FFC322002F03CFC402002F039FC3D
:10435000012002F036FC072002F033FC0E2002F0B0
:1043600030FC2B2002F02DFC322002F02AFC0F2022
:1043700002F027FCF82002F030FC212002F021FCA2
:10438000042002F01EFCF92002F027FC002002F0BD
:1043900018FC082002F015FC362002F01EFC082054
:1043A00002F00FFC3A2002F018FC052000E026E0A5
:1043B00002F007FCB42002F010FC012002F001FC26
:1043C000B62002F00AFC022002F0FBFB222002F0E1
:1043D000F8FBC12002F001FC412002F0F2FBC520F5
:1043E00002F0FBFB002002F0ECFB072002F0E9FBEF
:1043F000112002F0F2FB782003F04CFDECE558456B
:104400007ED1112002F0E9FB782003F043FD362035
:1044100002F0E3FB482002F0D4FB3A2002F0DDFB7F
:10442000552002F0CEFBF02002F0D7FBC32002F0B3
:10443000C8FBF02002F0D1FB962002F0C2FBB420B2
:1044400002F0CBFB012002F0BCFBB62002F0C5FB62
:104450000A2002F0B6FBA22002F0B3FBB72002F064
:10446000BCFBC62002F0ADFBB92002F0B6FB022077
:1044700002F0A7FBE02002F0A4FBC02002F0ADFB9D
:10448000802002F09EFB162002F09BFBC12002F070
:10449000A4FB192002F095FBC22002F09EFBA7208E
:1044A00002F08FFBC52002F098FB162002F089FB7A
:1044B000E82002F092FB402002F083FB8A2002F009
:1044C00080FB002002F07DFB002002F07AFB292017
:1044D00002F077FB192002F074FBA52002F071FBBB
:1044E000332002F06EFBE02002F077FBF02002F0B8
:1044F00068FB072002F065FB0D2002F062FB00E084
:1045000060E0042002F05DFB052002F05AFB14205D
:1045100002F057FB362002F054FB542002F051FB0E
:104520004C2002F04EFB382002F04BFB132002F02F
:1045300048FB142002F045FB2E2002F042FB342001
:1045400002F03FFBE12002F048FBF02002F039FBD3
:10455000102002F036FB142002F033FB0E2002F094
:1045600030FB0C2002F02DFB082002F02AFB352046
:1045700002F027FB442002F024FB4C2002F021FB38
:10458000262002F01EFB102002F01BFB122002F07E
:1045900018FB2C2002F015FB322002F012FBF02059
:1045A00002F01BFB3C2002F00CFBF02002F015FB9C
:1045B000692002F006FB782003F06CFC212002F059
:1045C0000CFB09E5B0427CD1ED2002F006FB012096
:1045D00002F0F7FAFE2002F0F4FAEE2002F0FDFA03
:1045E000DE2002F0EEFA212002F0EBFAF12002F0D8
:1045F000F4FA012002F0E5FADF2002F0EEFA1020D2
:1046000002F0DFFAC42002F0E8FA8F2002F0D9FAB3
:10461000C62002F0E2FA002002F0D3FAE22002F013
:10462000D0FAE22002F0CDFAE22002F0CAFABF206E
:1046300002F0D3FAAA2002F0C4FAB02002F0CDFAB8
:104640000D2002F0BEFA002002F0BBFA0D2002F0AD
:10465000B8FA002002F0B5FA112002F0B2FA0020F8
:1046600002F0AFFA192002F0ACFA002002F0A9FA29
:10467000212002F0A6FA002002F0A3FA2D2002F079
:10468000A0FA002002F09DFA3D2002F09AFA0020E4
:1046900002F097FA5D2002F094FA002002F091FAFD
:1046A0005D2002F08EFA002002F08BFAB12002F0B9
:1046B00094FA802002F085FA002002F082FA8B2022
:1046C00000E0FCE302F07DFA002002F07AFA962086
:1046D00002F077FA002002F074FAB22002F07DFABC
:1046E000002002F06EFA002002F06BFA022002F0C5
:1046F00068FA002002F065FA032002F062FA002056
:1047000002F05FFAB32002F068FA002002F059FAD2
:10471000002002F056FA002002F053FA002002F0C6
:1047200050FA002002F04DFA002002F04AFA002070
:1047300002F047FA002002F044FA002002F041FAA9
:10474000002002F03EFA002002F03BFA002002F0C6
:1047500038FA002002F035FA002002F032FA002088
:1047600002F02FFA002002F02CFA002002F029FAC1
:10477000002002F026FA002002F023FA002002F0C6
:1047800020FA002002F01DFA002002F01AFA0020A0
:1047900002F017FA002002F014FAB42002F01DFA19
:1047A0008B2002F00EFA002002F00BFA962002F0A5
:1047B00008FA002002F005FAA12002F002FA002017
:1047C00002F0FFF9B52002F008FA022002F0F9F930
:1047D000002002F0F6F9032002F0F3F9002002F0C5
:1047E000F0F9042002F0EDF9002002F0EAF9B62019
:1047F00002F0F3F9002002F0E4F9002002F0E1F900
:10480000B72002F0EAF9002002F0DBF9002002F004
:10481000D8F93F2002F0D5F9002002F0D2F95E204D
:1048200002F0CFF9002002F0CCF9642002F0C9F9BF
:10483000002002F0C6F98C2002F0C3F9002002F03B
:10484000C0F9AC2002F0BDF9002002F0BAF9DC207A
:1048500002F0B7F9002002F0B4F9702002F0B1F9CB
:10486000002002F0AEF9902002F0ABF9002002F037
:10487000A8F9EB2002F0A5F9002002F0A2F9DC2053
:1048800002F09FF9002002F09CF9B82002F0A5F98F
:10489000002002F096F9002002F093F9002002F0C7
:1048A00090F9002002F08DF9002002F08AF9002032
:1048B00002F087F9002002F084F9002002F081F96B
:1048C000BA2002F08AF9242002F07BF9002002F0DD
:1048D00078F9002002F075F9002002F072F9C12089
:1048E00002F07BF9202002F06CF9002002F069F957
:1048F000542002F066F9002002F063F9FF2002F074
:1049000060F9002002F05DF9C22002F066F90A2089
:1049100002F057F9002002F054F9042002F051F996
:10492000002002F04EF9C32002F057F93C2002F0BB
:1049300048F9002002F045F93A2002F042F900203F
:1049400002F03FF9392002F03CF9002002F039F979
:10495000372002F036F9002002F033F93C2002F053
:1049600030F9002002F02DF9362002F02AF900205B
:1049700002F027F9322002F024F9002002F021F998
:104980002F2002F01EF9002002F01BF92C2002F06B
:1049900018F9002002F015F9292002F012F9002080
:1049A00002F00FF9262002F00CF9002002F009F9BC
:1049B000242002F006F9002002F003F9242002F07E
:1049C00000F9002002F0FDF8232002F0FAF80020A0
:1049D00002F0F7F83C2002F0F4F8002002F0F1F8C1
:1049E000362002F0EEF8002002F0EBF8322002F060
:1049F000E8F8002002F0E5F82F2002F0E2F80020AD
:104A000002F0DFF82C2002F0DCF8002002F0D9F8E8
:104A1000292002F0D6F8002002F0D3F8262002F078
:104A2000D0F8002002F0CDF8242002F0CAF80020CF
:104A300002F0C7F8242002F0C4F8002002F0C1F808
:104A4000232002F0BEF8002002F0BBF8C42002F0E0
:104A5000C4F8622002F0B5F8002002F0B2F8052098
:104A600002F0AFF8002002F0ACF8842002F0A9F8C0
:104A7000002002F0A6F8F02002F0A3F8002002F0D7
:104A8000A0F8182002F09DF8002002F09AF8A42067
:104A900002F097F8002002F094F8182002F091F844
:104AA000002002F08EF8502002F08BF8002002F077
:104AB00088F80C2002F085F8002002F082F8172018
:104AC00002F07FF8002002F07CF8952002F079F8DF
:104AD000002002F076F8F32002F073F8002002F0D4
:104AE00070F8E62002F06DF8002002F06AF8C520A8
:104AF00002F073F8322002F064F8002002F061F84E
:104B0000442002F05EF8002002F05BF8652002F01D
:104B100058F8002002F055F8762002F052F80020F4
:104B200002F04FF8882002F04CF8002002F049F81B
:104B3000C62002F052F8202002F043F8002002F0D4
:104B400040F8172002F03DF8002002F03AF801206A
:104B500002F037F8002002F034F8C72002F03DF8E8
:104B6000002002F02EF8002002F02BF8002002F0C6
:104B700028F8002002F025F8C82002F02EF80020C6
:104B800002F01FF8002002F01CF8002002F019F8D3
:104B9000002002F016F8C92002F01FF8002002F0F1
:104BA00010F8002002F00DF8002002F00AF80020B2
:104BB00002F007F8002002F004F8002002F001F8EB
:104BC000002001F0FEFF002001F0FBFF002001F0BB
:104BD000F8FF002001F0F5FF002001F0F2FF0020B7
:104BE00001F0EFFF002001F0ECFF002001F0E9FFF1
:104BF000002001F0E6FF002001F0E3FFE02001F0DB
:104C0000ECFF162001F0DDFF002001F0DAFF1C2090
:104C100001F0D7FF002001F0D4FF212001F0D1FFE7
:104C2000002001F0CEFF362001F0CBFF002001F084
:104C3000C8FF462001F0C5FF002001F0C2FF52204E
:104C400001F0BFFF002001F0BCFF642001F0B9FFBC
:104C5000002001F0B6FF7A2001F0B3FF002001F040
:104C6000B0FF8B2001F0ADFF002001F0AAFF9920DA
:104C700001F0A7FF002001F0A4FFA82001F0A1FF90
:104C8000002001F09EFFB92001F09BFF002001F001
:104C900098FFC42001F095FF002001F092FFCA2088
:104CA00001F08FFF002001F08CFFD22001F089FF7E
:104CB000002001F086FFD92001F083FF002001F0E1
:104CC00080FFE02001F07DFF002001F07AFFF3205B
:104CD00001F077FF002001F074FFE12001F07DFF7B
:104CE000162001F06EFF002001F06BFF1C2001F088
:104CF00068FF002001F065FF222001F062FF002024
:104D000001F05FFF362001F05CFF002001F059FF49
:104D1000452001F056FF002001F053FF522001F022
:104D200050FF002001F04DFF642001F04AFF0020F9
:104D300001F047FF7A2001F044FF002001F041FF1D
:104D40008B2001F03EFF002001F03BFF992001F095
:104D500038FF002001F035FFA82001F032FF0020CD
:104D600001F02FFFB92001F02CFF002001F029FFF6
:104D7000C42001F026FF002001F023FFCA2001F02B
:104D800020FF002001F01DFFD22001F01AFF0020BB
:104D900001F017FFD82001F014FF002001F011FFEF
:104DA000E02001F00EFF002001F00BFFF32001F0E6
:104DB00008FF002001F005FFE22001F00EFF0520B2
:104DC00001F0FFFE002001F0FCFE0B2001F0F9FED7
:104DD000002001F0F6FE1B2001F0F3FE002001F0A0
:104DE000F0FE342001F0EDFE002001F0EAFE442048
:104DF00001F0E7FE002001F0E4FE4F2001F0E1FEAB
:104E0000002001F0DEFE612001F0DBFE002001F059
:104E1000D8FE792001F0D5FE002001F0D2FE8820D6
:104E200001F0CFFE002001F0CCFE972001F0C9FE7A
:104E3000002001F0C6FEA62001F0C3FE002001F014
:104E4000C0FEB72001F0BDFE002001F0BAFEC22076
:104E500001F0B7FE002001F0B4FEC72001F0B1FE62
:104E6000002001F0AEFED12001F0ABFE002001F0E9
:104E7000A8FED62001F0A5FE002001F0A2FEDD2054
:104E800001F09FFE002001F09CFEF32001F099FE4E
:104E9000002001F096FEE32001F09FFE052001F0C6
:104EA00090FE002001F08DFE0A2001F08AFE002015
:104EB00001F087FE1C2001F084FE002000E0FDE2EE
:104EC00001F07FFE332001F07CFE002001F079FE2E
:104ED000442001F076FE002001F073FE502001F026
:104EE00070FE002001F06DFE622001F06AFE0020DD
:104EF00001F067FE782001F064FE002001F061FE01
:104F0000882001F05EFE002001F05BFE972001F09A
:104F100058FE002001F055FEA62001F052FE0020B0
:104F200001F04FFEB72001F04CFE002001F049FED9
:104F3000C22001F046FE002001F043FEC72001F030
:104F400040FE002001F03DFED12001F03AFE00209D
:104F500001F037FED52001F034FE002001F031FED3
:104F6000DD2001F02EFE002001F02BFEF32001F0E9
:104F700028FE002001F025FEE42001F02EFE012095
:104F800001F01FFE002001F01CFE012001F019FEBF
:104F9000002001F016FE022001F013FE002001F0B7
:104FA00010FE2A2001F00DFE002001F00AFE3C2038
:104FB00001F007FE002001F004FE4B2001F001FE8D
:104FC000002001F0FEFD5D2001F0FBFD002001F05E
:104FD000F8FD742001F0F5FD002001F0F2FD8420C1
:104FE00001F0EFFD002001F0ECFD932001F0E9FD60
:104FF000002001F0E6FDA22001F0E3FD002001F019
:10500000E0FDB32001F0DDFD002001F0DAFDBE205F
:1050100001F0D7FD002001F0D4FDC42001F0D1FD46
:10502000002001F0CEFDCD2001F0CBFD002001F0ED
:10503000C8FDD32001F0C5FD002001F0C2FDDD2038
:1050400001F0BFFD002001F0BCFDF32001F0B9FD2F
:10505000002001F0B6FDE52001F0BFFD002001F0C9
:10506000B0FD002001F0ADFD002001F0AAFD002000
:1050700001F0A7FD022001F0A4FD002001F0A1FD38
:10508000292001F09EFD002001F09BFD3C2001F055
:1050900098FD002001F095FD4B2001F092FD0020CD
:1050A00001F08FFD5D2001F08CFD002001F089FDF5
:1050B000742001F086FD002001F083FD842001F0C2
:1050C00080FD002001F07DFD932001F07AFD00209D
:1050D00001F077FDA22001F074FD002001F071FDC8
:1050E000B32001F06EFD002001F06BFDBE2001F049
:1050F00068FD002001F065FDC42001F062FD002084
:1051000001F05FFDCD2001F05CFD002001F059FDB4
:10511000D32001F056FD002001F053FDDC2001F00A
:1051200050FD002001F04DFDF32001F04AFD00206C
:1051300001F047FDE62001F050FD112001F041FD96
:10514000002001F03EFD342001F03BFD002001F085
:1051500038FD562001F035FD002001F032FD7620AB
:1051600001F02FFD002001F02CFD772001F029FD3A
:10517000002001F026FD662001F023FD002001F053
:1051800020FD882001F01DFD002001F01AFD99206E
:1051900001F017FD002001F014FDBB2001F011FD0E
:1051A000002001F00EFD992001F00BFD002001F020
:1051B00008FD662001F005FD002001F002FD5520EC
:1051C00001F0FFFC002001F0FCFC552001F0F9FC8F
:1051D000002001F0F6FC452001F0F3FC002001F076
:1051E000F0FC432001F0EDFC002001F0EAFC44203B
:1051F00001F0E7FC002001F0E4FCE72001F0EDFC09
:10520000322001F0DEFC002001F0DBFC552001F033
:10521000D8FC002001F0D5FC762001F0D2FC002063
:1052200001F0CFFC662001F0CCFC002001F0C9FCAD
:10523000672001F0C6FC002001F0C3FC672001F0EC
:10524000C0FC002001F0BDFC872001F0BAFC00206A
:1052500001F0B7FC992001F0B4FC002001F0B1FC92
:10526000BB2001F0AEFC002001F0ABFC992001F066
:10527000A8FC002001F0A5FC772001F0A2FC002092
:1052800001F09FFC442001F09CFC002001F099FCFF
:10529000562001F096FC002001F093FC232001F041
:1052A00090FC002001F08DFC332001F08AFC0020EE
:1052B00001F087FC452001F084FC002001F081FC16
:1052C000E82001F08AFC002001F07BFC002001F0C6
:1052D00078FC992001F075FC002001F072FC872019
:1052E00001F06FFC002001F06CFC882001F069FCEB
:1052F000002001F066FC772001F063FC002001F043
:1053000060FC662001F05DFC002001F05AFC882062
:1053100001F057FC002001F054FCAA2001F051FCE0
:10532000002001F04EFCBB2001F04BFC002001F0FE
:1053300048FC992001F045FC002001F042FC662069
:1053400001F03FFC002001F03CFC552001F039FC4D
:10535000002001F036FC552001F033FC002001F064
:1053600030FC442001F02DFC002001F02AFC4420F8
:1053700001F027FC002001F024FC552001F021FC65
:10538000002001F01EFCE92001F027FCAA2001F01A
:1053900018FC002001F015FC002001F012FC002098
:1053A00001F00FFC002001F018FCAA2001F009FC1C
:1053B000CF2001F012FC002001F003FC002001F0DE
:1053C00000FC002001F0FDFB002001F0FAFB0020B2
:1053D00001F0F7FB002001F0F4FB002001F0F1FBED
:1053E000002001F0EEFB002001F0EBFB002001F0BB
:1053F000E8FB002001F0E5FB002001F0E2FB0020CB
:1054000001F0DFFB002001F0DCFB002001F0D9FB04
:10541000002001F0D6FB002001F0D3FBF02001F0CA
:10542000DCFB002001F0CDFB502001F0CAFB002086
:1054300001F0C7FB002001F0C4FB002001F0C1FB1C
:10544000F32001F0CAFB002001F0BBFBF92001F0C2
:10545000C4FB062001F0B5FB102001F0B2FB2920AF
:1054600001F0AFFB002001F0ACFB3A2001F0B5FBEE
:10547000552001F0A6FB112001F0AFFB642002F0E3
:1054800009FD292001F0A9FB352001F0A6FB002031
:1054900001F097FB512001F0A0FBFF2001F091FBF0
:1054A000532001F09AFB2C2001F08BFB552001F0DA
:1054B00094FB822001F085FB2C20FDE3A0F5AA419E
:1054C00010397CD0B8427BD1E22001F086FB1D2050
:1054D00001F077FB022001F074FB042001F071FB66
:1054E000642002F0E5FCE02001F077FB012001F0F0
:1054F00068FB0A2002F0CEFCE02001F06EFB0320E6
:1055000001F05FFB0C2002F0C5FC012001F065FBFF
:105510000A2002F0BFFCE62001F05FFB2F2001F023
:1055200050FBFF2001F04DFBFF2001F04AFBB020B3
:1055300001F053FB202001F044FB002001F041FB6F
:10554000032001F03EFB40F21F3001F03AFB012046
:1055500001F037FB40F2DF1001F033FB002001F0D7
:1055600030FBB42001F039FB042001F02AFB40F2AB
:105570001F4001F026FB002001F023FB2E2001F04C
:1055800020FB002001F01DFB002001F01AFB002091
:1055900001F017FB002001F014FBB62001F01DFB09
:1055A000022001F00EFB4FF4037001F00AFB002013
:1055B00001F007FB172001F004FB152001E070E06B
:1055C0003DE001F0FEFA002001F0FBFA002001F0BE
:1055D000F8FAF02001F001FB032001F0F2FA292093
:1055E00001F0FBFAD02001F0F8FA002001F0E9FA0E
:1055F000BE2001F0F2FA052001F0E3FAFE2001F0EE
:10560000E0FA012001F0DDFA002001F0DAFA0020D2
:1056100001F0D7FA002001F0D4FAB82001F0DDFA49
:10562000032001F0CEFA012001F0CBFABA2001F0FC
:10563000D4FA012001F0C5FA642000F0D5FFFE483D
:105640008088404507D0B04205D0A0F5AA41103966
:1056500001D0B84217D1D4F81C0120F00F00C4F8D3
:105660001C01D4F81C0120F47060C4F81C01D4F8AB
:105670001C0140F00300C4F81C01D4F81C0140F4E4
:105680000070C4F81C010020FDF74CFFEB4901201D
:10569000C1F8BC024FF6FF70FDF70AFF15B0BDE878
:1056A000F08F4FF470435521184601F0ADFA4FF2D8
:1056B0000105AA21284601F0A7FA4FF2020952215A
:1056C000484601F0A1FA4FF2030A0821504601F0C2
:1056D0009BFA4FF2040B0121584601F095FA0D2177
:1056E0004FF4304001F090FA0D214BF2010001F02F
:1056F0008BFA0D214BF2020001F086FA34214FF4AF
:10570000364001F081FA34214BF2016001F07CFA5D
:1057100034214BF2026001F077FA0D214FF4314051
:1057200001F072FA0D214BF2011001F06DFA0D211A
:105730004BF2021001F068FA34214FF4374001F0C7
:1057400063FA34214BF2017001F05EFA34214BF21E
:10575000027001F059FA00214FF4324001F054FA7E
:1057600000214BF2012001F04FFA00214BF2022000
:1057700001F04AFA24214FF4384001F045FA24217F
:105780004BF6010001F040FA24214BF6020001F033
:105790003BFA01214FF43F4001F036FA0F214FF45C
:1057A000334001F031FA0F214BF2013001F02CFAB5
:1057B0000F214BF2023001F027FA34214FF4394027
:1057C00001F022FA34214BF6011001F01DFA3421C8
:1057D0004BF6021001F018FA08214FF4354001F0A1
:1057E00013FA08214BF2015001F00EFA08214BF296
:1057F000025001F009FA03214FF4424001F004FA8B
:1058000024214FF43A4001F0FFF924214BF6012006
:1058100001F0FAF924214BF6022001F0F5F90021FC
:105820004FF43C4001F0F0F978214BF6014001F0D3
:10583000EBF900214BF6024001F0E6F900214FF4AC
:105840003D4001F0E1F978214BF6015001F0DCF91F
:1058500000214BF6025001F0D7F900214FF43E40F1
:1058600001F0D2F964214BF6016001F0CDF900217D
:105870004FF4514001F0C8F933214DF2011001F00D
:10588000C3F900214DF2021001F0BEF934214DF2AE
:10589000031001F0B9F900214DF2041001F0B4F940
:1058A0003A214DF2051001F0AFF900214DF206103A
:1058B00001F0AAF94A214DF2071001F0A5F90021E3
:1058C0004DF2081001F0A0F95C214DF2091001F031
:1058D0009BF900214DF20A1001F096F981214DF259
:1058E0000B1001F091F900214DF20C1001F08CF930
:1058F000A6214DF20D1001F087F900214DF20E1096
:1059000001F082F9E5214DF20F1001F07DF901213E
:105910004DF2101001F078F913214DF2111001F041
:1059200073F901214DF2121001F06EF954214DF27C
:10593000131001F069F901214DF2141001F064F91E
:1059400082214DF2151001F05FF901214DF2161080
:1059500001F05AF9CA214DF2171001F055F9022150
:105960004DF2181001F050F900214DF2191001F01C
:105970004BF902214DF21A1001F046F901214DF2C6
:105980001B1001F041F902214DF21C1001F03CF90D
:1059900034214DF21D1001F037F902214DF21E1095
:1059A00001F032F967214DF21F1001F02DF90221AB
:1059B0004DF2201001F028F984214DF2211001F060
:1059C00023F902214DF2221001F01EF9A4214DF21B
:1059D000231001F019F902214DF2241001F014F9FD
:1059E000B7214DF2251001F00FF902214DF22610DA
:1059F00001F00AF9CF214DF2271001F005F902213B
:105A00004DF2281001F000F9DE214DF2291001F0CD
:105A1000FBF802214DF22A1001F0F6F8F2214DF2C6
:105A20002B1001F0F1F802214DF22C1001F0ECF8EE
:105A3000FE214DF22D1003E0B8030020008040420B
:105A400001F0E2F803214DF22E1001F0DDF81021F3
:105A50004DF22F1001F0D8F803214DF2301001F073
:105A6000D3F833214DF2311001F0CEF803214DF27D
:105A7000321001F0C9F86D214DF2331001F0C4F875
:105A800000214FF4524001F0BFF833214DF20120C4
:105A900001F0BAF800214DF2022001F0B5F83421EE
:105AA0004DF2032001F0B0F800214DF2042001F086
:105AB000ABF83A214DF2052001F0A6F800214DF295
:105AC000062001F0A1F84A214DF2072001F09CF8D0
:105AD00000214DF2082001F097F85C214DF20920D9
