:020000040800F2
:1000000000C00120890200086F630008AB290008C6
:100010006D630008290C0008F96C0008000000005E
:1000200000000000000000000000000081660008E1
:100030002B0C00080000000071630008196700081D
:10004000A3020008A3020008A302000885640008B8
:10005000A3020008A3020008A3020008A3020008EC
:10006000A3020008A3020008A3020008A3020008DC
:10007000A3020008A3020008A3020008A3020008CC
:10008000A3020008A3020008A3020008A3020008BC
:10009000A3020008A3020008A3020008A3020008AC
:1000A000A3020008A3020008A3020008A30200089C
:1000B000A302000871670008A9670008A3020008EE
:1000C000A3020008A3020008A3020008A30200087C
:1000D000A3020008CD6C0008A3020008A3020008D8
:1000E000A302000875630008A3020008A302000829
:1000F000A3020008A3020008A3020008A30200084C
:10010000A3020008A3020008A3020008A30200083B
:10011000A3020008A3020008A3020008A30200082B
:10012000A3020008A3020008A3020008A30200081B
:10013000A3020008990C0008A3020008A30200080B
:10014000A3020008A3020008A3020008A3020008FB
:10015000A3020008A3020008A3020008A3020008EB
:10016000A3020008A3020008A3020008A3020008DB
:10017000A3020008A3020008A30200080000000078
:10018000A3020008A302000800F002F800F06DF8D6
:100190000AA090E8000C82448344AAF10107DA45E2
:1001A00001D100F062F8AFF2090EBAE80F0013F0C7
:1001B000010F18BFFB1A43F0010318475C6A0100E6
:1001C0007C6A01000A444FF0000C10F8013B13F068
:1001D000070408BF10F8014B1D1108BF10F8015BA0
:1001E000641E05D010F8016B641E01F8016BF9D193
:1001F00013F0080F1EBF10F8014BAD1C0C1B09D1EA
:100200006D1E58BF01F801CBFAD505E014F8016B5B
:1002100001F8016B6D1EF9D59142D6D370470000ED
:100220000023002400250026103A28BF78C1FBD8FF
:10023000520728BF30C148BF0B607047642900F0E7
:100240002B81752900F02881782900F061816329CC
:1002500000F0AB83732900F0B083002070471FB516
:1002600011F082FF1FBD10B510BD00F0F3FB114669
:10027000FFF7F5FF0AF0B4FD00F011FC03B4FFF73F
:10028000F2FF03BC06F068FD0948804709480047B3
:10029000FEE7FEE7FEE7FEE7FEE7FEE7FEE7FEE736
:1002A000FEE7FEE704480549054A064B7047000093
:1002B0001D6700088901000800B6012000C0012068
:1002C00000B8012000B80120704753EA020C00F08A
:1002D00069802DE9F04B4FF00006002B1FBFB3FAE9
:1002E00083F503FA05F424FA05F65E4012BF1643BF
:1002F000B2FA82F502FA05F4C5F120051EBF22FA12
:1003000005FC44EA0C04203556EA044C4FEA144438
:1003100018BF641C4FF000084FF00009904271EBC9
:10032000030C39D3002919BFB1FA81F701FA07F696
:10033000B0FA80F700FA07F6C7F120071EBF20FACF
:1003400007FC46EA0C062037B6FBF4FCA7EB0507D2
:10035000103F07F01F0BCBF120060CFA0BFB2CFA19
:1003600006F644BFB3460026202FA4BF5E464FF0DA
:10037000000B5BEA060C08BF4FF0010B19EB0B09F1
:10038000ABFB027C48EB0608C01B06FB02CC0BFB58
:1003900003CC71EB0C01C1E70B46024641464846CF
:1003A000BDE8F08B13B54FF000004FF00001AFF344
:1003B0000080BDE81C4070470FB4044910B503AA83
:1003C000029800F0FFFA10BC5DF814FB1800002042
:1003D0000FB41CB5074B06AA7B44694600900598EC
:1003E00000F0C1FA0020694600F0D0FA1CBC5DF8AC
:1003F00014FB0000B105000070B504468569006873
:10040000C10601D5302600E02026C00707D070BD08
:10041000D4E9012130469047206A401C20626D1EBD
:10042000F6D570BD70B5044685690078C00707D160
:1004300070BDD4E9012120209047206A401C206231
:100440006D1EF6D570BD70B50C460546012A05D067
:100450002878800600D5EA69002302E0012305E040
:100460005B1C934202D2E05C0028F9D1A869E6182F
:10047000C01AA861286A184428622846FFF7BCFF02
:1004800004E0D5E9012114F8010B9047B442F8D3F8
:100490002846FFF7C7FF70BD2DE9F041064600244E
:1004A00010687529314616A510D0AFF300800028DA
:1004B00002DA404213A507E031688A0701D512A588
:1004C00002E0490704D511A5012401E0AFF3008043
:1004D00000210A2206F1240709E0B0FBF2FCB0FB80
:1004E000F2F302FB1C00303078541846491C0028F7
:1004F000F3D123462A463046BDE8F04100F0D5B995
:10050000000000002D0000002B0000002000000073
:1005100070B504460D4621461068AFF3008021886F
:10052000090502D50F4A7A4402E00E4A7A440E3297
:10053000002104F1240305E000F00F060009965D98
:100540005E54491C0028F7D120780023000704D509
:10055000702D02D009B1022311322046BDE870404F
:1005600000F0A3B9566401002DE9F05F8946044606
:100570004FF0000ADFF874B1FB44C0F820A0204619
:10058000E1688847002874D0252806D0D4E90121E5
:100590009047206A401C2062F1E700265F46204613
:1005A000E16888472028054607DB312D05D27819F8
:1005B00010F8200C08B10643F1E7B00701D526F08A
:1005C0000406C4F81CA00027C4F818A02A2D09D0DE
:1005D000284606F0BAFB38B304EB8708303DC8F86C
:1005E000185019E059F8041B204604EB870291616A
:1005F000E1688847012F054618D1E069002820DA14
:1006000026F020061DE0D8F8180000EB800005EB6E
:1006100040003038C8F818002046E1688847054691
:1006200006F093FB0028EED1012F0AD02E2D08D121
:100630002046E16888477F1C0546022F46F02006C9
:10064000C4DBA069002803DA404246F00106A0613D
:10065000F00701D026F010066C2D0BD0682D09D0C4
:100660004C2D39D06A2D35D0742D35D07A2D33D01C
:1006700016E038E0E1682F4620468847B842054634
:1006800009D16C2F26D04FF48060E16806432046E4
:100690008847054604E06C2F1AD04FF4807006435B
:1006A0000DB3A5F14100192802D8203546F40066A3
:1006B0004A462946204626604E46FFF7BFFD80B1D8
:1006C00001280BD0F61D26F0070000F1080956E7B7
:1006D0004020E4E78020D8E70020D6E706F10409AF
:1006E0004DE7284652E7206ABDE8F09F2C640100E0
:1006F00040EA010310B59B070FD1042A0DD310C89F
:1007000008C9121F9C42F8D020BA19BA884201D9F0
:10071000012010BD4FF0FF3010BD1AB1D30703D038
:10072000521C07E0002010BD10F8013B11F8014BEE
:100730001B1B07D110F8013B11F8014B1B1B01D10A
:10074000921EF1D1184610BD10B5431C02E010F8FE
:10075000011B71B18107FAD14FF0013202C88C1A26
:100760008C4314EAC211F9D0C01A0A0603D0C01E85
:1007700010BDC01A10BD0A0401D0801E10BD0902B0
:10078000FCD0401E10BD032A40F2308010F0030C54
:1007900000F0158011F8013BBCF1020F624498BFD4
:1007A00011F801CB00F8013B38BF11F8013BA2F171
:1007B000040298BF00F801CB38BF00F8013B11F0EC
:1007C000030300F01181083AC0F0088051F8043B9F
:1007D000083A51F804CBA0E80810F5E7121D5CBFF9
:1007E00051F8043B40F8043BAFF30080D20724BF2C
:1007F00011F8013B11F801CB48BF11F8012B24BFC0
:1008000000F8013B00F801CB48BF00F8012B70470E
:100810004FF000020429C0F0128010F0030C00F029
:100820001B80CCF1040CBCF1020F18BF00F8012BA7
:10083000A8BF20F8022BA1EB0C0100F00DB85FEA75
:10084000C17C24BF00F8012B00F8012B48BF00F841
:10085000012B70474FF0000200B5134694469646B0
:10086000203922BFA0E80C50A0E80C50B1F12001C3
:10087000BFF4F7AF090728BFA0E80C5048BF0CC071
:100880005DF804EB890028BF40F8042B08BF7047CF
:1008900048BF20F8022B11F0804F18BF00F8012B41
:1008A000704770477047704770472DE9F0470D4615
:1008B00099469246044600F124080168880604D54A
:1008C000E06921F01001216000E00120A84201DD73
:1008D000471B00E00027A1697A1902EB0900081AFA
:1008E000A0612078C00602D42046FFF785FD0026CF
:1008F00008E0D4E901211AF806009047206A401C5C
:10090000761C20624E45F4DB2078C0060AD52046CE
:10091000FFF772FD06E0D4E9012130209047206AFC
:10092000401C2062381EA7F10107F4DC07E0D4E97F
:10093000012118F805009047206A401C2062281EFB
:10094000A5F10105F3DC2046FFF76CFD20780006D9
:1009500002D50220BDE8F0870120FBE701694A1CAF
:1009600002610878704700B58FB0CDE901310021F0
:10097000059105497944CDE9031011466846FFF712
:10098000F3FD0FB000BD0000E5FFFFFF0A6802F8AD
:10099000010B0A60704710B5436913B1AFF30080D3
:1009A00001E0FFF750FD012010BD127800F1240195
:1009B0000A7000224A700122EDE711684FF0FF3201
:1009C000E9E70000074B70B50D467B44FFF7CBFF0E
:1009D0000446284600F03AF810B14FF0FF3070BDE1
:1009E000204670BDCB89000010B5203AC0F00B80C6
:1009F000B1E81850203AA0E81850B1E81850A0E823
:100A00001850BFF4F5AF5FEA027C24BFB1E818507C
:100A1000A0E8185044BF18C918C0BDE810405FEAEC
:100A2000827C24BF51F8043B40F8043B08BF704768
:100A3000D20728BF31F8023B48BF11F8012B28BF6D
:100A400020F8023B48BF00F8012B7047007B00F004
:100A500080007047754600F02BF8AE4605006946E9
:100A6000534620F00700854618B020B5FFF71AFC62
:100A7000BDE820404FF000064FF000074FF000089F
:100A80004FF0000B21F00701AC46ACE8C009ACE820
:100A9000C009ACE8C009ACE8C0098D46704710B584
:100AA0000446AFF300802046BDE81040FFF7E6BBE8
:100AB000004870479CB50120464910B54A6822F4A9
:100AC00040324A604A6843681A434A6001684A688B
:100AD00022F480724A6001684A68036942EA03228C
:100AE0004A6001684A6822F040724A6001684A68B8
:100AF00083681A434A6001688A6822F400628A6047
:100B000001688A68C3681A438A60816A6FF07062FC
:100B1000D14201688A6822F070628A6001688A683E
:100B20000CD0836A1A438A6001688A6822F04052B6
:100B30008A6001688A68C36A1A4301E022F0405261
:100B40008A6001688A6822F002028A6001688A6805
:100B5000037E42EA43028A6090F82010002901686F
:100B60004A680FD042F400624A6001684A6822F481
:100B700060424A6001684A68174C436A04EB433399
:100B80001A4301E022F400624A600168CA6A22F452
:100B90007002CA620168CA6A838B104C04EB03536B
:100BA0001A43CA6201688A6822F400728A60016886
:100BB0008A6890F8303042EA43228A6001688A6885
:100BC00022F480628A6001688A68406942EA802073
:100BD000886010BD0023014000E0FFFF0000F0FF2F
:100BE00030B50F4887B0016841F02001016000680E
:100BF0004FF4807400F0200005900120CDE9004002
:100C000002900320074D03906946284600F052FDEC
:100C100000222146284600F032FE07B030BD000019
:100C20003038024000140240FEE77047064908B51C
:100C300009684FF4FA52B1FBF2F14143009100BF51
:100C4000491E0091FBD208BD0000002038B50446C3
:100C5000006800F58050816941F48011816120684D
:100C600000F58050806900900120FFF7DFFF2068C9
:100C7000009900F58050816138BD02680021002A8A
:100C800008DB0268120405D40268D20502D50068A8
:100C9000C0F30D410846704710B5094C01E009F05A
:100CA0009BFFA06AFFF7E9FF0028F8D120684FF406
:100CB000803100F5805041614021416110BD00004C
:100CC000040400202DE9F041044621B14FF40060F6
:100CD000E060C000A060E0690026002861D03546D1
:100CE0002068402702683C490A40D4E902131943AE
:100CF000294341F400711143016020680568012017
:100D000000F062F920680560206847602068456847
:100D1000012000F059F9206845602068866020684D
:100D2000C660206881694FF64172114041F0800130
:100D3000816120688569012000F046F9206885619D
:100D40002068C6612068C569012000F03DF920686F
:100D5000C561206800F580508169204A1140204A11
:100D60000A438261206800F580508569012000F007
:100D70002BF9206800F5805085612068194900F53D
:100D800080500160206800F580500568012000F067
:100D90001BF9206800F580500560A069012803D088
:100DA00009E04FF480659BE7206800F58050C16939
:100DB0000D4A1143C16160690C4A81881164017850
:100DC000C37841EA0361837840781B0443EA00203A
:100DD00001435164BDE8F0810F8120FF233FDEF81D
:100DE000040020028020C102400001000080024077
:100DF00010B54FF4A07100200AF0B4FC0A4CA021F9
:100E0000206000200AF0AEFC606043F688310020CC
:100E10000AF0A8FCA06041F6C45100200AF0A2FC30
:100E2000E060002010BD00002800002070B5B3F580
:100E3000804F05D06FF0704140F82210002070BD47
:100E400050F82230084C2340D1E9004544EA05140B
:100E50008D688E892D0245EA064589692C430C432D
:100E60001C4340F82240E9E70000F0CFF0B50C68E1
:100E700050F82450114A1540D1E90123D1E9036704
:100E80001A433E4332434E6932438E693243CE6940
:100E900032430E6A32434E6A32438E6A3243CE6A1E
:100EA0003243CE6B096B32430A432A43082B01D1EC
:100EB00042F0400240F824200020F0BD8000F0FF06
:100EC00030B500EB82004268D1E9003443EA0413F4
:100ED0008C688D89240244EA054423430C8A084D1A
:100EE00002F0404205EB045423430C7D6D0105EBF9
:100EF0000464896923430B4313434360002030BDDE
:100F00000000F0FF70B504004FF0000603D0206C25
:100F1000002510B107E0012070BD204600F01CF84C
:100F2000656484F83C50206CC00610D4206C20F41A
:100F3000885040F0020020642046FFF7BDFD656444
:100F4000206C20F0020040F00100206400E0012647
:100F500084F83C50304670BD104800B5026887B038
:100F6000002142F480720260006800F480700590F5
:100F70000A481438026842F001020260006800F07A
:100F800001000590202000900320CDE90101694671
:100F9000034800F08FFB07B000BD0000443802405A
:100FA0000000024090F83510022903D080214165ED
:100FB00001207047052180F835100068016821F094
:100FC000010101600020704770B5044600F062FC2A
:100FD0000546601C02D004480078044400F05AFC26
:100FE000401BA042FAD370BD040000202DE9F0435D
:100FF00090F845500024012D0DD04FF0010980F8E4
:101000004590022580F8445044F2F45C4FF00048CB
:101010005F1E816216E00220BDE8F08301EB4415FB
:10102000C5F80080C4EBC41606EB460602EB860644
:10103000C5E901C6BC4203D205F12006EE6000E01E
:10104000E960641C9C42E9D3026802F58052D160D9
:1010500080F84490002180F845100846DCE72DE92F
:10106000F04390F845400025012C0BD04FF0010CC7
:1010700080F845C0022480F844404FF480195F1E78
:10108000C1621BE00220BDE8F08301EB4514C4F807
:101090000090C5EBC51606EB460602EB8606A66079
:1010A000C6691EB9266846F440062660BD4203D2D2
:1010B00004F12006E66000E0E1606D1C9D42E4D38F
:1010C000026802F58052116180F844C0002180F866
:1010D00045100846D7E710B590F84510012913D000
:1010E000012380F84530022180F84410816A0A68A3
:1010F0000024002A27DB0A68D20518D5826B521C0F
:101100008263012A02D002E0022010BD0163416324
:101110000A68C2F30D42121FC263026B9268026436
:10112000C96840F8281F03774477002010BD0A687B
:10113000920503D58363C0E90C1402E0826B521C54
:101140008263C968816200F8443F4470012010BD89
:101150002DE9FC474FF000060400B146009603D08D
:1011600094F8440018B107E00120BDE8FC8784F83A
:101170004560204600F0E0F86548016841F4804190
:101180000160006800F4804001906248016821F429
:10119000000101600168226A11430160206800F5C6
:1011A0008050016841F00101016000F073FB0546C9
:1011B0004FF4FA7708E000F06DFB401BB84203D90A
:1011C000032004F8440F67E0206800F580500068B1
:1011D000C007F0D12068006920F01C0500F01AFD5E
:1011E0004D494E4A0144914202D245F0080516E0AD
:1011F0004B494C4A0144914202D245F00C050EE0A5
:1012000049494A4A0144914209D349490844494954
:10121000884202D245F0040501E045F0100520683F
:1012200005614FF400420021204600F008FA012534
:10123000A8BBFF20FFF7C8FE606888B300F02AFB58
:10124000804641F288376A460121204600F0F0F8D6
:1012500000F020FBA0EB0800B84217D80098400728
:10126000F1D54FF480520021204600F0E8F9B0B9E2
:1012700000F010FB80466A460121204600F0D8F8B5
:1012800000F008FBA0EB0800B8420AD90121204673
:10129000FFF718FD04F8445F0320667065E724E05B
:1012A00018E000988006E6D56A461F21204600F027
:1012B000BFF8D0B90098C10603D54FF40061E160D2
:1012C00000E0E660400701D5A66019E04FF48040D9
:1012D000A06015E0E068A168C00840EA510082B251
:1012E0000021204600F0ABF930B101212046FFF784
:1012F000E9FC84F8445037E740F6FF70FFF764FEDE
:1013000049462046FFF7DEFC84F8445000202CE7D5
:10131000443802400438014000D3CEFEC0E1E4006E
:1013200040F1E9FD40787D0100796CFC005A6202D1
:10133000001F0AFA80F0FA0230B5384887B000255D
:10134000016841F000710160016801F000710591D0
:10135000016841F080610160016801F080610591E0
:10136000016841F000610160016801F000610591D0
:10137000016841F001010160016801F0010105917E
:10138000016841F002010160016801F0020105916C
:10139000016841F004010160016801F00401059158
:1013A000016841F008010160016801F00801059140
:1013B000016841F0400101600068032400F0400032
:1013C0000590862000900220CDE901050B20CDE993
:1013D00003406946124800F06DF9322000906946DA
:1013E000104800F067F94FF4D040009069460E486D
:1013F00000F060F90820009001200394CDE9010578
:1014000069460A4800F056F9002201213D2000F00B
:1014100093FA3D2000F083FA07B030BD3038024027
:10142000000002400008024000180240000C024088
:101430002DE9F047044690F84400914682281DD0DB
:10144000822084F84400206802694FF6FF7502F09C
:101450001C03228A05EAC2221A434FF4F86303EA06
:101460008111114321F0020141F00105056100F0F5
:1014700011FA064601274FF480380FE00220BDE83C
:10148000F08700F007FA801B404505D304F8447F3D
:10149000002060700320F2E720680569E807F0D1BA
:1014A0002068406981B2C9F8001084F844700020B7
:1014B000E5E7F8B5044690F84500012839D0012544
:1014C00084F84550022084F8440020680026016812
:1014D00041F0080101602068006800902846FFF78D
:1014E000A5FB2168009808602068016841F00401AC
:1014F00001602068006800900120FFF797FB2168D9
:10150000009808602046FFF7A1FB206800F5805096
:10151000816941F400518161206800F58050816942
:1015200041F00201816184F8445084F84560002054
:10153000F8BD0220F8BDF0B590F845300022012B2F
:1015400011D0012780F84570022380F8443000252F
:1015500059B1C46A2368002B0ADA122100F8441F2B
:1015600045700120F0BD0220F0BD00F8447FF7E790
:1015700040F2F456B1420BD9B1FBF6FCB1FBF6F3E5
:1015800006FB1C1CBCF1000F00D05B1C012B43D1DF
:10159000226842F040522260C26AC1F30C015160DD
:1015A000C16A0A6842F000420A60C16AC968C16241
:1015B00034E0D4F800C02CF0405CC4F800C032B96C
:1015C000C46AD4F800C04CF0805CC4F800C0C46A9F
:1015D00066605C1EA24214D1C46AD4F800C04CF00C
:1015E000005CC4F800C0C3F10104C4EBC41404EBF4
:1015F0004404D0F82CC001EB8404C4F30C04CCF8F0
:101600000440C46AD4F800C04CF0004CC4F800C0D8
:10161000C46A521CE468C4629A42CAD3016801F5E4
:1016200080514A69520705D504224A61016801F5D3
:1016300080514D6000F8447F45700020F0BD2DE9D9
:10164000F041044690F8440042281ED0422084F81D
:101650004400206803694FF6FF7603F01C05238AD7
:1016600006EAC3232B434FF4F86505EA81111943B9
:1016700041F0030591B241612068056100F00AF96B
:10168000064601274FF480380FE00220BDE8F081C4
:1016900000F000F9801B404505D304F8447F00208A
:1016A00060700320F2E720680569E807F0D184F84C
:1016B0004470EBE72DE9F84FDFF88C91002209F137
:1016C000040A0AF1040B4FF00F080BF1040E012677
:1016D0000B6896403340B34271D14C68022C01D064
:1016E000122C11D1D40800EB84073D6A5407E40E94
:1016F00008FA04FC25EA0C05D1F810C00CFA04FC29
:101700004CEA050CC7F820C007685400032591F87F
:1017100004C0A5400CF0030CAF430CFA04FC4CEAE7
:10172000070CC0F800C04F68012F05D0022F03D06E
:10173000112F01D0122F11D18768D1F80CC0AF43FF
:101740000CFA04FC4CEA070CC0F808C04768B74321
:101750000E79C6F3001696403E434660C668AE4317
:101760008D68A5403543C5604C68E40065D5374CAD
:10177000256845F480452560246822F0030504F4BB
:1017800080440094324C2E19D6F808789407250F1F
:1017900008FA05F4A7432F4CA04201D1002424E00D
:1017A0002D4CA04201D101241FE02C4CA04201D1BC
:1017B00002241AE02A4CA04202D1032415E03CE0A6
:1017C000284CA04201D104240FE0274CA04201D1B3
:1017D00005240AE0254CA04201D1062405E0244C52
:1017E000A04201D1072400E00824AC403C43C6F8E5
:1017F0000848D9F800404D464E689C43F60300D592
:101800001C432C60DAF8004055464E689C43B603F2
:1018100000D51C432C60DBF800405D464E689C43BD
:10182000F60200D51C432C60DEF8004075464E6879
:101830009C43B60200D51C432C60521C102AFFF4B6
:1018400046AFBDE8F88F0000003C0140443802403C
:101850000030014000000240000402400008024045
:10186000000C024000100240001402400018024028
:10187000001C02400069084000D0012070470AB1F6
:10188000816170470904FBE701480068000C70475C
:10189000002004E001488068704700000400002038
:1018A000024881680278114481607047040000207A
:1018B000094810B5016841F400710160016841F404
:1018C00080610160052000F057F80F2000F006F855
:1018D00000F024F8002010BD003C024070B50D4D12
:1018E00004464FF47A712878B1FBF0F00A49096890
:1018F000B1FBF0F000F0DEFD48B9102C07D2002259
:101900002146501E00F018F800206C6070BD0120C8
:1019100070BD000004000020000000207047002877
:1019200009DB00F01F02012191404009800000F115
:10193000E020C0F800117047F0B40E4B1B68C3F3F1
:101940000223C3F10704042C00D904241D1D072D14
:1019500001D2002300E0DB1E012606FA04F56D1E0D
:101960000D409D409E40761E164045EA0601F0BCA3
:1019700005F0DBB90CED00E0064A00F00701106845
:101980004FF6FF03184040EA012003490843106066
:10199000704700000CED00E00000FA05014901204D
:1019A0000862704700000E422DE9F84304460068C3
:1019B0004FF00109C1074FF0000501D1400726D5BE
:1019C000DFF80C81C8F86850FFF764FF0646414F06
:1019D00004E0FFF75FFF801B022857D8386800013A
:1019E000F7D46068217A800140EA01703949843176
:1019F0000860C8F86890FFF74DFF064604E0FFF75F
:101A000049FF801B022841D838680001F7D52078AB
:101A1000800752D52F484030016841F08051016065
:101A200000682D4F00F080500090386840F48070BE
:101A30003860FFF72FFF064604E0FFF72BFF801BFF
:101A4000022823D83868C005F7D5224E7036306892
:101A500010F4407020D0A18901F4407181421BD064
:101A600030681E4920F44070C1F800900D6030606D
:101A70003068C00710D0FFF70DFF054641F28837E8
:101A800007E0FFF707FF401BB84202D90320BDE87B
:101A9000F88330688007F4D5E0680E49C0F301226E
:101AA0000831032A0BD0086820F4F8100860306869
:101AB000A189C1F30B01084330600020E7E70A6801
:101AC000074B22F4F812184002430A60EFE70000C7
:101AD000000047420038024000700040400E47427C
:101AE000FFFCFF0F2DE9F0470D46040065D0DFF83D
:101AF0001491D9F80000EFB200F00F00A84207D20D
:101B000089F80070D9F8000000F00F00A84254D105
:101B100020683D4E810712D5400703D5306840F458
:101B2000E05030602078000703D5306840F4604012
:101B300030603068A16820F0F00008433060207801
:101B4000C0072DD0304960680839012812D002281A
:101B500013D0032811D00968890700292DDA3168CC
:101B600021F0030101433160FFF794FE804641F20A
:101B7000883A0EE009688903EFE709688901ECE714
:101B8000FFF788FEA0EB0801514502D90320BDE80C
:101B9000F0873068616800F00C00B0EB810FEFD186
:101BA000D9F80010484601F00F01A94207D9077083
:101BB000006800F00F00A84201D00120E7E720787C
:101BC000400705D53068E16820F4E05008433060F4
:101BD0002078000706D53068216920F4604040EA8B
:101BE000C100306000F03CF83168084AC1F30311CD
:101BF000515CC840064908600F20FFF76FFE0020C7
:101C0000C5E70000003C024008380240722101088C
:101C1000000000200148006870470000000000201C
:101C20000448054900680968044AC1F38221515CEF
:101C3000C840704700000020083802408221010897
:101C40000448054900680968044AC1F34231515CFF
:101C5000C840704700000020083802408221010877
:101C6000154810B5006810F00C01144813D043104B
:101C700004290FD008290ED10F4C241F216801F030
:101C80003F022168490207D52068C0F38810A0FBF5
:101C9000030106E0184610BD2168C1F38811A1FBBD
:101CA00000010023FEF711FB2168C1F30141491C2B
:101CB0004900B0FBF1F010BD083802400024F400E8
:101CC0002DE9F84F040073D02078BD4DC00748D0EF
:101CD000BB4808300168C1F38101012908D00068C0
:101CE000C0F3810002280AD1281D0068400206D5F1
:101CF0002868800335D560680028E4D031E060684A
:101D0000B0F5803F10D0B0F5A02F286810D020F497
:101D100080302860286820F4802028606068A0B1A6
:101D2000FFF7B8FD06460CE0286840F48030F4E781
:101D300040F480202860F7E7FFF7ACFD801B6428A3
:101D400072D828688003F7D50BE0FFF7A3FD06469D
:101D500004E0FFF79FFD801B6428F1D8286880030A
:101D6000F7D42078DFF85C9280074FF0000A3ED568
:101D700093480830016811F00C0F09D00068C0F3D7
:101D8000810002280BD18E48001D0068400206D455
:101D90002868800715D5E068012809D111E0E068BE
:101DA000B8B10120C9F80000FFF774FD064605E050
:101DB00003E1FFF76FFD801B0228C1D82868800768
:101DC000F7D52868216920F0F80040EAC1002860B2
:101DD0000DE0C9F800A0FFF75DFD064604E0FFF73F
:101DE00059FD801B02281FD828688007F7D4207867
:101DF000000722D5724F74496069743770B10120B1
:101E00000860FFF747FD064604E0FFF743FD801B2F
:101E1000022809D838688007F7D50EE0C1F800A07D
:101E2000FFF738FD064605E081E0FFF733FD801B34
:101E300002287CD838688007F7D42078400769D515
:101E4000DFF87CB14FF000080BF1400BDBF800002D
:101E5000C0000CD4DBF8001041F08051CBF800102A
:101E6000DBF800004FF0010800F080500090574F61
:101E70003868C0050FD4386840F480703860FFF7C8
:101E800009FD064604E0FFF705FD801B02284ED839
:101E90003868C005F7D54A4FA068703701280FD0C1
:101EA0000528386810D020F001003860386820F02C
:101EB00004003860A068B0B1FFF7ECFC06460EE005
:101EC000386840F00100F4E740F004003860F7E7BC
:101ED000FFF7E0FC811B41F28830814265D8386809
:101EE0008007F5D50DE0FFF7D5FC064606E0FFF7C5
:101EF000D1FC811B41F28830814256D83868800776
:101F0000F5D4B8F1000F05D0DBF8001021F08051B6
:101F1000CBF80010A069C8B3294908310968C1F39A
:101F20008101022949D00228504607D000E03CE058
:101F3000C9F86000FFF7AEFC044639E04F46C9F827
:101F40006000FFF7A7FC064604E0FFF7A3FC801B38
:101F500002282AD828688001F7D4D4E90701084369
:101F6000A16A1B4A490802EB0141626A41EA8211F7
:101F7000084394F82C1040EA01611148001D0160EB
:101F800001203866FFF786FC044605E013E0FFF702
:101F900081FC001B022808D828688001F7D50AE0D8
:101FA000FFF778FC001B022802D90320BDE8F88F58
:101FB00028688001F4D40020F8E70120F6E700004B
:101FC0000038024000004742800E47420070004047
:101FD0000000FFFF70470068503050F82100704744
:101FE0000068503040F82120704700000449D1F8C3
:101FF000A80218B10020C1F8A80270470120FAE732
:102000000080424210B504460068C16849050CD5FD
:102010008068400409D52046FFF7E8FF2068C168C2
:1020200001F0800161F49061C16003494FF48000C8
:1020300008600120607710BD143C014001A0FEF74C
:10204000BBB90000414C41524D2041210D0A000016
:1020500010B504460068C168C9050CD58068C00485
:1020600009D52046FFF7EAFF2068C16801F080012A
:1020700061F4C071C1602068C16889050CD58068B1
:10208000800409D52046FFF7A5FF2068C16801F04C
:10209000800161F42071C16003494FF40030086091
:1020A0000120607710BD0000143C014070B50400B1
:1020B00002D0607F10B106E0012070BD00202077C3
:1020C000204600F049F8022060772168CA20486263
:1020D000216853204862204604F05DF9FF2504265C
:1020E00018BB206881681B4A1140816020688168A4
:1020F00062681143D4E904231A43114381602168C3
:10210000E068086120680169228941EA02410161B1
:102110002068C16821F08001C16020688068800665
:1021200007D4204600F018F918B120684562667798
:10213000C2E72068016C21F4802101642068016CF1
:10214000A269114301642068456201206077002084
:1021500070BD0000BFFF8FFF10B5104892B0002483
:10216000016841F080510160006800F080501090DB
:10217000FFF714FC042006940090012468460294A2
:10218000FFF79EFD02200C90C0010F900CA8FFF7F6
:102190000BFC0348046012B010BD00004038024040
:1021A0003C0E47422DE9F0470446007F0B460128CC
:1021B0001FD04FF0010984F81C9002206077DAB13B
:1021C0009878D97840EA014558781978000240EAB1
:1021D000413005432168CA20486221685320486283
:1021E000204604F0D8F80026FF274FF0040860BB13
:1021F0001AE00220BDE8F0875878C10603D500F048
:10220000EF000A305870D87804F0BAF80204587811
:1022100004F0B6F842EA0022987804F0B1F80243DC
:10222000187842EA4035D5E70F48054020684560F8
:102230002068C16821F08001C16020688068800644
:102240000AD4204600F088F830B12068476284F84C
:102250001D8026770120CDE72068476284F81D9015
:1022600026770020C6E700003FFFFF002DE9F0477A
:102270000446007F0D46012827D04FF0010A84F85C
:102280001CA0022060772068002680684FEA40602A
:10229000F2B1002800DBEE70A878297840EA014707
:1022A0006878E978000240EA014007432168CA20C3
:1022B0004862216853204862204604F06CF84FF0D1
:1022C000FF084FF00409A0BB16E00220BDE8F0872C
:1022D000002800DBEE70287804F052F802046878D9
:1022E00004F04EF842EA0022A87804F049F80243CC
:1022F000E87842EA0047D9E71648074020680760B7
:102300002068816821F480218160D5E903100143B0
:1023100020688268114381602068C16821F08001D3
:10232000C1602068806880060BD4204600F014F855
:1023300038B12168C1F8248084F81D9026770120E7
:10234000C4E72168C1F8248084F81DA02677002006
:10235000BCE700007F7F7F0070B505460068C1685C
:1023600021F0A001C160FFF795FA04464FF47A7698
:1023700006E0FFF78FFA001BB04201D9032070BDC1
:102380002868C0688006F4D5002070BD70B5154679
:102390000E46040003D094F8490010B107E0012074
:1023A00070BD002084F84800204600F01BF804F1BE
:1023B00008012068FEF75AFD3146A2682068FEF742
:1023C0007FFDD4E901022946236BFEF72FFDA168AA
:1023D000206850F8212042F0010240F8212000201E
:1023E00070BD0000284810B5016886B041F00101B9
:1023F0000160006800F0010005902348083801687A
:1024000041F008010160016801F0080105910168CF
:1024100041F010010160016801F0100105910168AF
:1024200041F020010160016801F02001059101687F
:1024300041F0400101600068694600F040000590ED
:102440004CF2337000900220019001200290032092
:1024500003900C2004900D48FFF72CF94FF6807084
:10246000009069460A48FFF725F94FF48054694601
:1024700008480094FFF71EF9694607480094FFF7E3
:1024800019F906B010BD000038380240000C0240B7
:102490000010024000140240001802404FF0E021FA
:1024A0000428086903D020F004000861704740F058
:1024B0000400FAE710B5401EB0F1807F01D301207F
:1024C00010BD4FF0E02460610F21601704F02DFC77
:1024D0000020A06107202061002010BD70477047D8
:1024E00010B5040003D094F83D0010B107E00120BE
:1024F00010BD002084F83C00204600F00DF80220BA
:1025000084F83D00211D206804F068F9012084F85A
:102510003D00002010BD000008B500680B4988424E
:1025200012D10B48016841F00201016000680322EA
:1025300000F00200009001211D20FFF7FDF9BDE829
:1025400008401D20FFF7EBB908BD00000004004063
:10255000403802400168CA6842F00102CA6000685F
:10256000816801F00701062903D0016841F00101EB
:10257000016000207047704770B50446006801692B
:102580004FF00005C943890715D4C168C9438907BD
:1025900011D4E91E0161012020772068806980073D
:1025A000204602D0FFF7E7FF04E000F098F820464D
:1025B00000F096F8257720680169C943490717D4C8
:1025C000C168C943490713D46FF0040101610220B7
:1025D00020772068806910F4407F204602D0FFF702
:1025E000CAFF04E000F07BF8204600F079F8257778
:1025F00020680169C943090716D4C168C94309079E
:1026000012D46FF008010161042020772068C069AE
:102610008007204602D0FFF7AEFF04E000F05FF82D
:10262000204600F05DF8257720680169C943C90696
:1026300017D4C168C943C90613D46FF010010161F2
:10264000082020772068C06910F4407F204602D01F
:10265000FFF791FF04E000F042F8204600F040F858
:10266000257720680169C943C90708D1C168C943F2
:10267000C90704D1891E0161204600F033F82068A3
:102680000169C943090609D4C168C943090605D4CB
:102690006FF0800101612046FFF720FF206801698B
:1026A000C943490609D4C168C943490605D46FF036
:1026B00040010161204600F021F820680169C9430A
:1026C00089060BD4C168C943890607D46FF020017D
:1026D00001612046BDE87040FFF701BF70BD704743
:1026E000704700000349884203D1034801680A315A
:1026F000016070474C04002094010020704770472F
:1027000010F8391F407808437047000070B5026820
:1027100004461068D168536910F00F0F50D003F0D1
:10272000010501F4907635435DD0C20705D0CA0596
:1027300003D5E26B42F00102E263420705D5DA07F6
:1027400003D0E26B42F00202E263820705D5DA07AA
:1027500003D0E26B42F00402E263020705D5DA0718
:1027600003D0E26B42F00802E263E26B002A33D04E
:10277000800604D5880602D5204604F0D3F82068E8
:102780004069E16BC0F38010090700D428B32046EC
:1027900004F0BAF82068416949061AD5416921F068
:1027A00040014161606BA0B11B490165606BFEF7A0
:1027B000F9FB002810D0606B016DBDE87040084740
:1027C000830610D58B060ED52046BDE8704004F078
:1027D000A9B82046FFF793FF70BD2046FFF78FFF93
:1027E0000020E06370BD030606D50B0604D5204625
:1027F000BDE8704004F038BA4006F3D54806F1D57C
:10280000D168204621F04001D160202184F83910A0
:1028100000F0CAF870BD0000F968000870B5040047
:1028200004D094F83900002510B106E0012070BDF5
:1028300084F83850204600F023F8242084F839002A
:102840002068C16821F40051C160204604F0B6F848
:102850002068016921F4904101612068416921F0FB
:102860002A0141612068C16841F40051C160E563FB
:10287000202084F8390084F83A00002070BD000060
:1028800010B500681A4986B088422FD119480168EE
:1028900041F001010160006800F001000590154859
:1028A0001430016841F0100101600068012100F05E
:1028B000100005904FF4007000900220CDE9010156
:1028C000039007200C4C049069462046FEF7F2FE68
:1028D0002115009169462046FEF7ECFE2520FFF702
:1028E0001EF8032211462520FFF726F806B010BD7A
:1028F00000100140303802400000024090F83A30A9
:10290000202B22D1F9B1F2B190F83830012B1CD034
:1029100081628285C2850021C163222280F83A202B
:1029200080F838100168CA6842F48072CA60016891
:102930004A6942F001024A610068C16841F0200121
:10294000C1600020704701207047022070470000DE
:1029500030B50068114988420CD1114A50880104F1
:1029600008D41146440409784FF0000306D50A291B
:1029700001D0538030BD40F400400DE00D2909D056
:10298000C0F30D04074D401C80B229555080C72864
:10299000EFD830BD40F48040508030BD0010014081
:1029A000140000204C0200207047FEE770B5144868
:1029B00086B00025016841F001010160016801F065
:1029C00001010591016841F01001016000680324D4
:1029D00000F01000059002200126CDE90204CDE9A7
:1029E000006569460748FEF765FE1C2003948DE8E4
:1029F000610069460448FEF75DFE06B070BD000048
:102A00003038024000000240001002402DE9F04141
:102A100001262E4C2E4F2F4D01281DD02078A0B11D
:102A200010212846FEF726FFC0B108212846FEF7F0
:102A300021FF98B104212846FEF71CFF70B1012147
:102A40003846FEF717FF012808D010212846FEF768
:102A500011FF012826D037E02670E1E70A2004F0B4
:102A6000FDF90020207010212846FEF703FF80B1F9
:102A700008212846FEF7FEFE70B104212846FEF725
:102A8000F9FE58B101213846FEF7F4FE012807D0BF
:102A90001AE00120BDE8F0810220FBE70320F9E7FE
:102AA0000420F7E708212846FEF7E4FE01280BD1B1
:102AB00004212846FEF7DEFE012805D10121384613
:102AC000FEF7D8FE00B926700020E3E724000020BE
:102AD000000002400010024010B51F2000F040F836
:102AE000C0F3820010BD00007CB5194D0024C5F86C
:102AF0008C42322005F5237504F0B0F901212960DC
:102B0000144802788DF8002042788DF801208278F0
:102B10008DF80220C2788DF8032002798DF8042008
:102B200040798DF805000D480B4AC0E900218A0361
:102B30008260CA02C26004826A46C0E90521C905F2
:102B4000C0E90741FEF704FB002800D001207CBD4E
:102B50000080414240AE0120008002400404002079
:102B600008B501466A460248FEF762FC009808BDB7
:102B7000040400202DE9F0431A4E814600243088D9
:102B800075884543B088A0F5D041043903D0A0F53D
:102B90001441813902D1B07901280AD000210846B8
:102BA00003F0D6F903F08CFB1FFA89F04FF0D841FF
:102BB00013E00020B0712A2777814FF02B08A6F888
:102BC0000C80014603F0C4F90120B071A6F80A8018
:102BD000B781E7E7A1F88000641CAC42FAD3BDE8F6
:102BE000F0830000A40300202DE9F04F6D492A2353
:102BF0002B24F027898847F2897945F2105A4FF43F
:102C0000305B4FF4285E4FF4487549F2413C4FF475
:102C1000A0767A0080B363484FF00108614580F8E0
:102C200006800680478022D0A1F5A647103F1ED01F
:102C300049451CD0A1F51447863F18D0A1F514478B
:102C4000883F14D0A1F5EE47963F10D0A1F5D047AC
:102C5000043F72D0A1F51447813F6ED0514570D129
:102C6000A0F808B0A0F80AE02302838190E02C25A8
:102C70000581438184816EE0FFE74A484FF00008F8
:102C8000614580F806800780468023D0A1F5D047B3
:102C9000043F1FD0A1F5A647103F1BD0A1F5144754
:102CA000813F17D0494515D0A1F51447863F11D073
:102CB000A1F51447883F0DD0A1F5EE47963F09D006
:102CC000514526D1A0F808B0A0F80AE04FF42C51E5
:102CD00081812DE02C2505814381A1F5D04384819C
:102CE000043B13D0A1F5A643103B0FD0A1F514432C
:102CF000813B0BD0A1F51443863B07D0A1F51443CB
:102D0000883B03D0A1F5EE43963B46D10680428036
:102D100043E0A1F5C856633E06D02221018120215F
:102D200041812121818138E02C21018144818381ED
:102D30000280458031E000E003E02C2505814481DC
:102D400008E0A1F5C857633F1ED022230381212349
:102D5000438120238381A1F5D043043B1BD0A1F5FF
:102D6000A643103B17D0A1F51443813B13D0A1F526
:102D70001443863B0FD0A1F51443883B0BD0A1F53B
:102D8000EE43963B07D008E02C27078143818481DE
:102D900005804280DFE702804680BDE8F04F0020DA
:102DA00002F0B0BFA40300202DE9F047624D924627
:102DB0000C4602464FEA1129A8882946A0F5134679
:102DC0004B894FEA1228413E2BD0A0F5A64110397D
:102DD00027D0A0F5EE41893923D0A0F5EE419639F0
:102DE0001FD0A0F5AA41103920D02E46A0F5C85713
:102DF000B1793688B61A761E633F32D0A0F5D04737
:102E0000043F4AD0A0F51447813F46D0A0F51447AF
:102E1000863F55D0A0F51447883F51D0012979D07D
:102E200079E0184603F03FFA40463DE0184603F0CB
:102E30003AFA404603F02BFA6889401C80B203F04E
:102E400032FAD0B203F023FAA88903F02CFA4846EC
:102E500003F01DFAA889401C80B203F024FAE0B206
:102E600054E001B9B2B2184603F01DFA160A304612
:102E700003F00DFAD0B203F00AFA304603F007FA75
:102E8000D0B203F004FAA88903F00DFA484603F023
:102E9000FEF9E0B203F0FBF90EE0012900D1B2B275
:102EA000184603F000FA100A03F0F1F9D0B203F06B
:102EB000EEF9A88903F0F7F9484603F0E8F9CEE700
:102EC000184603F0F0F9404603F0E1F9D0B203F000
:102ED000DEF92888401EC0F30F2003F0D8F92878C7
:102EE000401EC0B203F0D3F9A88903F0DCF94846CC
:102EF00003F0CDF9E0B203F0CAF96888401EC0F3D0
:102F00000F2003F0C4F9A878401EC0B203F0BFF947
:102F100009E0FFE7B2B21146184603F0DBF9A889D1
:102F2000214603F0D7F94FF0D840298920F87E1FB9
:102F3000A0F802A0BDE8F087A40300202DE9F84323
:102F4000244D14468046AA88DDF820C0A2F5D04062
:102F50001F46043803D0A2F51440813802D1A87965
:102F6000012809D0A4EB0800401C86B20C461FFAC9
:102F70008CF54FF0D8492AE02B880846191B00240D
:102F8000AC712A24A3EB08036C812B26491E5B1E1F
:102F9000AE8189B23A469BB2CDF800C0FFF7CEFFB2
:102FA0000120A8716E81AC81BDE8F88321464046BE
:102FB00002F0CEFF03F084F90020494603E0A1F8B7
:102FC0008050401C80B2B042F9D3641CA4B2BC4211
:102FD000ECD9E9E7A40300202DE9F04FFF4895B0B4
:102FE0000025016841F00201016000680EA900F0AF
:102FF000020013904FF400400E9001200F901090AB
:1030000003201190F648FEF755FBF648F6494FF0BD
:103010002044C0E900410621C0E902151021C0E9A1
:10302000045185610902C561C0E909518900C0E9FF
:103030000B5189014563C0E90E510F20CDE9070509
:103040003C2009900920CDE9000511200D95029042
:1030500003956A4607A90695E248FFF797F93220DB
:1030600003F0FCFE0121002003F034F9322003F0CC
:10307000F5FE002002F014FEDA4A47F2897550325C
:1030800049F28649908049F2884A47F2967B49F294
:10309000413845F2103641F66317FF2806D3A0F5F4
:1030A0007F41FF3902D0B0F5134F7CD1D32003F01C
:1030B000FAF802F0EBFD908002F0E8FD908002F05B
:1030C000E5FD4FF6FF7101EA0020908002F0DEFD81
:1030D000918808439080404565D0484563D050456D
:1030E00061D058455FD0042003F0DDF802F0CEFD3A
:1030F000908002F0CBFD908002F0C8FD4FF6FF718A
:1031000001EA0020908002F0C1FD91880843A0F5FB
:103110000541908052397DD0A84270D0BF2003F085
:10312000C2F802F0B3FD908002F0B0FD908002F092
:10313000ADFD908002F0AAFD4FF6FF7101EA00207C
:10314000908002F0A3FD91880843A0F5D0419080C3
:10315000043954D0A0F51441813950D0D42003F063
:10316000A2F802F093FD908002F090FD908002F0B2
:103170008DFD4FF6FF7101EA0020908002F086FD80
:10318000918808439080B04239D04FF45A4003F000
:103190008AF802F07BFD90804FF45B4003F083F8E7
:1031A00002F074FD00E02AE04FF6FF7101EA002012
:1031B00090804FF45C4003F076F802F067FD918850
:1031C00008439080B0F5004F49D0A0F5AA411039CE
:1031D00015D0A12003F067F802F058FD908002F0AE
:1031E00055FD4FF6FF7101EA0020908002F04EFD80
:1031F00091880843A0F5AE41908061392DD080B20E
:10320000404511D0B0420FD0A0F5AA4110390BD0E3
:10321000B84200E01FE007D0A84205D0484503D0DF
:10322000504501D058451ED1D4F81C0120F00F00A4
:10323000C4F81C01D4F81C0120F47060C4F81C010F
:10324000D4F81C0140F00300C4F81C01D4F81C01A0
:1032500040F4007025E09580E6E79780E4E745F2CA
:1032600010509080E0E7A0F5D041043903D0A0F5DC
:103270004541053917D1D4F81C0120F00F00C4F8DE
:103280001C01D4F81C0120F47060C4F81C01D4F8AF
:103290001C0140F00A00C4F81C01D4F81C0140F4E1
:1032A0004060C4F81C014F48503081884FA0FDF7A2
:1032B00083F84C485030808840457CD1CF2002F0C4
:1032C000F2FF002002F0E3FFC12002F0E0FF302017
:1032D00002F0DDFFED2002F0E6FF642002F0D7FFF0
:1032E000032002F0D4FF122002F0D1FF812002F06F
:1032F000CEFFE82002F0D7FF852002F0C8FF1020A3
:1033000002F0C5FF7A2002F0C2FFCB2002F0CBFF13
:10331000392002F0BCFF2C2002F0B9FF002002F09F
:10332000B6FF342002F0B3FF022002F0B0FFF72016
:1033300002F0B9FF202002F0AAFFEA2002F0B3FF5A
:10334000002002F0A4FF002002F0A1FFC02002F044
:10335000AAFF1B2002F09BFFC12002F0A4FF012066
:1033600002F095FFC52002F09EFF302002F08FFF93
:10337000302002F08CFFC72002F095FFB72002F04A
:1033800086FF362002F08FFF482002F080FF3A20AF
:1033900002F089FF552002F07AFFB12002F083FF8E
:1033A000002002F074FF1A2002F071FFB62002F034
:1033B0007AFF0A2000E09EE002F069FFA22002F0FE
:1033C00066FFF22002F06FFF002002F060FF26206F
:1033D00002F069FF012002F05AFF0FE0303802408E
:1033E0000004024054030020040100A0204C434488
:1033F0002049443A25780D0A00000000E02002F040
:1034000052FF0F2002F043FF2A2002F040FF282045
:1034100002F03DFF082002F03AFF0E2002F037FFD5
:10342000082002F034FF542002F031FFA92002F0FE
:103430002EFF432002F02BFF0A2002F028FF0F206E
:1034400002F025FF002002F022FF002002F01FFF03
:10345000002002F01CFF002002F019FFE12002F022
:1034600022FF002002F013FF152002F010FF1720AA
:1034700002F00DFF072002F00AFF112002F007FF03
:10348000062002F004FF2B2002F001FF562002F07C
:10349000FEFE3C2002F0FBFE052002F0F8FE1020AC
:1034A00002F0F5FE0F2002F0F2FE3F2002F0EFFEE8
:1034B0003F2002F0ECFE0F2002F0E9FE2B2002F08C
:1034C000F2FE002002F0E3FE002002F0E0FE012008
:1034D00002F0DDFE3F2002F0DAFE2A2002F0E3FED9
:1034E000002002F0D4FE002002F0D1FE002002F005
:1034F000CEFEEF20DFE2A8427ED1112002F0D3FE03
:10350000782003F0ABFC362002F0CDFE002002F064
:10351000BEFE3A2002F0C7FE052002F0B8FEB2203F
:1035200002F0C1FE0C2002F0B2FE0C2002F0AFFE51
:10353000002002F0ACFE332002F0A9FE332002F09E
:10354000A6FEB72002F0AFFE352002F0A0FEBB20A1
:1035500002F0A9FE322002F09AFEC02002F0A3FE83
:103560000C2002F094FEC22002F09DFE012002F029
:103570008EFEC32002F097FE102002F088FEC420C9
:1035800002F091FE202002F082FEC62002F08BFEA7
:103590000F2002F07CFED02002F085FEA42002F075
:1035A00076FEA12002F073FEE02002F07CFED02027
:1035B00002F06DFE002002F06AFE022002F067FEBB
:1035C000072002F064FE0A2002F061FE282002F0CB
:1035D0005EFE322002F05BFE442002F058FE4220E4
:1035E00002F055FE062002F052FE0E2002F04FFEC1
:1035F000122002F04CFE00E053E0142002F047FEDF
:10360000172002F044FEE12002F04DFED02002F02F
:103610003EFE002002F03BFE022002F038FE0720B2
:1036200002F035FE0A2002F032FE282002F02FFEC2
:10363000312002F02CFE542002F029FE472002F037
:1036400026FE0E2002F023FE1C2002F020FE172092
:1036500002F01DFE1B2002F01AFE1E2002F017FED3
:103660002A2002F020FE002002F011FE002002F0CD
:103670000EFE002002F00BFEEF2002F008FE2B20D1
:1036800002F011FE002002F002FE002002F0FFFD19
:10369000012002F0FCFD3F2002F0F9FD292002F09C
:1036A000E9BAA0F5144181397ED048457DD1F22098
:1036B00002F0F9FD182002F0EAFDA32002F0E7FD78
:1036C000122002F0E4FD022002F0E1FDB22002F03F
:1036D000DEFD122002F0DBFDFF2002F0D8FD1020FD
:1036E00002F0D5FD002002F0D2FDF82002F0DBFD53
:1036F000212002F0CCFD042002F0C9FDF92002F0E7
:10370000D2FD002002F0C3FD082002F0C0FD3620EB
:1037100002F0C9FD082002F0BAFD3A2002F0C3FD14
:10372000052002F0B4FDB42002F0BDFD012002F03E
:10373000AEFDB62002F0B7FD022002F0A8FD222067
:1037400002F0A5FDC12002F0AEFD412002F09FFD78
:10375000C52002F0A8FD002002F099FD072002F02C
:1037600096FDE02002F09FFD0F2002F090FD1F204B
:1037700002F08DFD1C2002F08AFD0C2002F087FD76
:103780000F2002F084FD082002F081FD482002F0A5
:103790007EFD982002F07BFD372002F078FD0A20A4
:1037A00002F075FD132001E03DE0E6E002F06FFD60
:1037B000042002F06CFD112002F069FD0D2002F0E2
:1037C00066FD002002F063FDE12002F06CFD0F2099
:1037D00002F05DFD322002F05AFD2E2002F057FD6E
:1037E0000B2002F054FD0D2002F051FD052002F0E7
:1037F0004EFD472002F04BFD752002F048FD3720BA
:1038000002F045FD062002F042FD102002F03FFDCF
:10381000032002F03CFD242002F039FD202002F0BC
:1038200036FD002047E1112002F03DFD142003F099
:1038300015FBD02002F037FD072002F028FD4220C2
:1038400002F025FD1C2002F022FDD12002F02BFD0C
:10385000002002F01CFD102002F019FD102002F0E3
:1038600016FDD22002F01FFD012002F010FD1120F4
:1038700002F00DFDE42002F016FDA02002F007FD8D
:10388000F32002F010FD002002F001FD2A2002F0DA
:10389000FEFCC02002F007FD102002F0F8FC3B20E7
:1038A00002F0F5FC002002F0F2FC022002F0EFFC36
:1038B000112002F0ECFCC52002F0F5FC032002F020
:1038C000E6FCC82002F0EFFC002002F0E0FC35200E
:1038D00002F0DDFC232002F0DAFC072002F0D7FC26
:1038E000002002F0D4FC042002F0D1FC452002F0BC
:1038F000CEFC532002F0CBFC772002F0C8FC7020F5
:1039000002F0C5FC002002F0C2FC042002F0BFFC63
:10391000362002F0C8FC0A2002F0B9FC3A2002F07E
:10392000C2FC552002F0B3FC2A2002F0BCFC0020AF
:1039300002F0ADFC002002F0AAFC012002F0A7FC7E
:103940003F2002F0A4FC2B2002F0ADFC002002F08E
:103950009EFC002002F09BFC012002F098FCE0207D
:1039600002F095FC782003F079FA212002F09BFC0C
:10397000292002F098FC01F004B950457ED1E020E6
:1039800002F091FC002002F082FC1B2002F07FFC80
:103990001F2002F07CFC0A2002F079FC0F2002F0CC
:1039A00076FC072002F073FC3C2002F070FC38200B
:1039B00002F06DFC492002F06AFC002002F067FC76
:1039C0000C2002F064FC0B2002F061FC152002F0D8
:1039D0005EFC172002F05BFC0F2002F058FCE12097
:1039E00002F061FC002002F052FC192002F04FFCB2
:1039F0001B2002F04CFC042002F049FC0F2002F0D6
:103A000046FC042002F043FC302002F040FC32204F
:103A100002F03DFC402002F03AFC012002F037FCAD
:103A2000072002F034FC0E2002F031FC2B2002F0C3
:103A30002EFC322002F02BFC0F2002F028FCF82094
:103A400002F031FC212002F022FC042002F01FFCD5
:103A5000F92002F028FC002002F019FC082002F0F6
:103A600016FC362002F01FFC082002F010FC3A2061
:103A700002F019FC052002F00AFC00E024E0B4206A
:103A800002F011FC012002F002FCB62002F00BFC57
:103A9000022002F0FCFB222002F0F9FBC12002F020
:103AA00002FC412002F0F3FBC52002F0FCFB0020E9
:103AB00002F0EDFB072002F0EAFB112002F0F3FB1D
:103AC000782003F0CBF9E9E558457CD1112002F0CC
:103AD000EAFB782003F0C2F9362002F0E4FB48202C
:103AE00002F0D5FB3A2002F0DEFB552002F0CFFBBE
:103AF000F02002F0D8FBC32002F0C9FBF02002F056
:103B0000D2FB962002F0C3FBB42002F0CCFB0120D4
:103B100002F0BDFBB62002F0C6FB0A2002F0B7FBA4
:103B2000A22002F0B4FBB72002F0BDFBC62002F0D9
:103B3000AEFBB92002F0B7FB022002F0A8FBE020A8
:103B400002F0A5FBC02002F0AEFB802002F09FFB3C
:103B5000162002F09CFBC12002F0A5FB192002F008
:103B600096FBC22002F09FFBA72002F090FBC5202D
:103B700002F099FB162002F08AFBE82002F093FB8A
:103B8000402002F084FB8A2002F081FB002002F03A
:103B90007EFB002002F07BFB292002F078FB19203D
:103BA00002F075FBA52002F072FB332002F06FFBE0
:103BB000E02002F078FBF02002F069FB072002F021
:103BC00066FB0D2000E062E002F061FB042002F0E1
:103BD0005EFB052002F05BFB142002F058FB362050
:103BE00002F055FB542002F052FB4C2002F04FFB38
:103BF000382002F04CFB132002F049FB142002F0A5
:103C000046FB2E2002F043FB342002F040FBE12073
:103C100002F049FBF02002F03AFB102002F037FBE3
:103C2000142002F034FB0E2002F031FB0C2002F0D5
:103C30002EFB082002F02BFB352002F028FB44204D
:103C400002F025FB4C2002F022FB262002F01FFB95
:103C5000102002F01CFB122002F019FB2C2002F0B5
:103C600016FB322002F013FBF02002F01CFB3C207C
:103C700002F00DFBF02002F016FB692002F007FBBA
:103C8000782003F0EBF8212002F00DFB06E5B042AE
:103C90007ED1ED2002F007FB012002F0F8FAFE20B1
:103CA00002F0F5FAEE2002F0FEFADE2002F0EFFA62
:103CB000212002F0ECFAF12002F0F5FA012002F0E6
:103CC000E6FADF2002F0EFFA102002F0E0FAC4205A
:103CD00002F0E9FA8F2002F0DAFAC62002F0E3FAE5
:103CE000002002F0D4FAE22002F0D1FAE22002F041
:103CF000CEFAE22002F0CBFABF2002F0D4FAAA20DA
:103D000002F0C5FAB02002F0CEFA0D2002F0BFFAA0
:103D1000002002F0BCFA0D2002F0B9FA002002F0F7
:103D2000B6FA112002F0B3FA002002F0B0FA19201E
:103D300002F0ADFA002002F0AAFA212002F0A7FA60
:103D4000002002F0A4FA2D2002F0A1FA002002F0D7
:103D50009EFA3D2002F09BFA002002F098FA5D20C6
:103D600002F095FA002002F092FA5D2002F08FFA3C
:103D7000002002F08CFAB12002F095FA802002F0C7
:103D800086FA002002F083FA8B2002F080FA00E02D
:103D9000FDE3002002F07BFA962002F078FA002082
:103DA00002F075FAB22002F07EFA002002F06FFAFB
:103DB000002002F06CFA022002F069FA002002F002
:103DC00066FA032002F063FA002002F060FAB320E2
:103DD00002F069FA002002F05AFA002002F057FAC5
:103DE000002002F054FA002002F051FA002002F004
:103DF0004EFA002002F04BFA002002F048FA0020B0
:103E000002F045FA002002F042FA002002F03FFAE8
:103E1000002002F03CFA002002F039FA002002F003
:103E200036FA002002F033FA002002F030FA0020C7
:103E300002F02DFA002002F02AFA002002F027FA00
:103E4000002002F024FA002002F021FA002002F003
:103E50001EFA002002F01BFA002002F018FA0020DF
:103E600002F015FAB42002F01EFA8B2002F00FFACD
:103E7000002002F00CFA962002F009FA002002F06D
:103E800006FAA12002F003FA002002F000FAB520A1
:103E900002F009FA022002F0FAF9002002F0F7F924
:103EA000032002F0F4F9002002F0F1F9042002F0FE
:103EB000EEF9002002F0EBF9B62002F0F4F9002050
:103EC00002F0E5F9002002F0E2F9B72002F0EBF988
:103ED000002002F0DCF9002002F0D9F93F2002F0C6
:103EE000D6F9002002F0D3F95E2002F0D0F90020CC
:103EF00002F0CDF9642002F0CAF9002002F0C7F9FF
:103F00008C2002F0C4F9002002F0C1F9AC2002F0CC
:103F1000BEF9002002F0BBF9DC2002F0B8F9002065
:103F200002F0B5F9702002F0B2F9002002F0AFF90A
:103F3000902002F0ACF9002002F0A9F9EB2002F089
:103F4000A6F9002002F0A3F9DC2002F0A0F900207D
:103F500002F09DF9B82002F0A6F9002002F097F9CE
:103F6000002002F094F9002002F091F9002002F004
:103F70008EF9002002F08BF9002002F088F9002071
:103F800002F085F9002002F082F9BA2002F08BF9E4
:103F9000242002F07CF9002002F079F9002002F0E0
:103FA00076F9002002F073F9C12002F07CF920209C
:103FB00002F06DF9002002F06AF9542002F067F96E
:103FC000002002F064F9FF2002F061F9002002F005
:103FD0005EF9C22002F067F90A2002F058F90020C9
:103FE00002F055F9042002F052F9002002F04FF9D6
:103FF000C32002F058F93C2002F049F9002002F0F9
:1040000046F93A2002F043F9002002F040F9392045
:1040100002F03DF9002002F03AF9372002F037F9BA
:10402000002002F034F93C2002F031F9002002F0C7
:104030002EF9362002F02BF9002002F028F9322068
:1040400002F025F9002002F022F92F2002F01FF9DA
:10405000002002F01CF92C2002F019F9002002F0D7
:1040600016F9292002F013F9002002F010F9262099
:1040700002F00DF9002002F00AF9242002F007F9FD
:10408000002002F004F9242002F001F9002002F0DF
:10409000FEF8232002F0FBF8002002F0F8F83C20A4
:1040A00002F0F5F8002002F0F2F8362002F0EFF806
:1040B000002002F0ECF8322002F0E9F8002002F0D3
:1040C000E6F82F2002F0E3F8002002F0E0F82C20C0
:1040D00002F0DDF8002002F0DAF8292002F0D7F82B
:1040E000002002F0D4F8262002F0D1F8002002F0DF
:1040F000CEF8242002F0CBF8002002F0C8F82420EB
:1041000002F0C5F8002002F0C2F8232002F0BFF848
:10411000002002F0BCF8C42002F0C5F8622002F0D2
:10412000B6F8002002F0B3F8052002F0B0F8002045
:1041300002F0ADF8842002F0AAF8002002F0A7F8FF
:10414000F02002F0A4F8002002F0A1F8182002F0FC
:104150009EF8002002F09BF8A42002F098F80020BE
:1041600002F095F8182002F092F8002002F08FF883
:10417000502002F08CF8002002F089F80C2002F0A8
:1041800086F8002002F083F8172002F080F8002063
:1041900002F07DF8952002F07AF8002002F077F81E
:1041A000F32002F074F8002002F071F8E62002F02B
:1041B0006EF8002002F06BF8C52002F074F832208F
:1041C00002F065F8002002F062F8442002F05FF887
:1041D000002002F05CF8652002F059F8002002F09F
:1041E00056F8762002F053F8002002F050F88820AC
:1041F00002F04DF8002002F04AF8C62002F053F811
:10420000202002F044F8002002F041F8172002F0CC
:104210003EF8002002F03BF8012002F038F80020C0
:1042200002F035F8C72002F03EF8002002F02FF827
:10423000002002F02CF8002002F029F8002002F003
:1042400026F8C82002F02FF8002002F020F8002005
:1042500002F01DF8002002F01AF8002002F017F812
:10426000C92002F020F8002002F011F8002002F02E
:104270000EF8002002F00BF8002002F008F80020F1
:1042800002F005F8002002F002F8002001F0FFFF24
:10429000002001F0FCFF002001F0F9FF002001F0F8
:1042A000F6FF002001F0F3FF002001F0F0FF0020F6
:1042B00001F0EDFF002001F0EAFF002001F0E7FF30
:1042C000002001F0E4FFE02001F0EDFF162001F0F6
:1042D000DEFF002001F0DBFF1C2001F0D8FF0020F2
:1042E00001F0D5FF212001F0D2FF002001F0CFFF27
:1042F000362001F0CCFF002001F0C9FF462001F07C
:10430000C6FF002001F0C3FF522001F0C0FF0020D3
:1043100001F0BDFF642001F0BAFF002001F0B7FFFB
:104320007A2001F0B4FF002001F0B1FF8B2001F0F2
:10433000AEFF002001F0ABFF992001F0A8FF0020A4
:1043400001F0A5FFA82001F0A2FF002001F09FFFCF
:10435000B92001F09CFF002001F099FFC42001F07A
:1043600096FF002001F093FFCA2001F090FF00208B
:1043700001F08DFFD22001F08AFF002001F087FFBD
:10438000D92001F084FF002001F081FFE02001F03E
:104390007EFF002001F07BFFF32001F078FF00207A
:1043A00001F075FFE12001F07EFF162001F06FFFA4
:1043B000002001F06CFF1C2001F069FF002001F0DB
:1043C00066FF222001F063FF002001F060FF36202D
:1043D00001F05DFF002001F05AFF452001F057FF7A
:1043E000002001F054FF522001F051FF002001F0A5
:1043F0004EFF642001F04BFF002001F048FF7A20BF
:1044000001F045FF002001F042FF8B2001F03FFF4B
:10441000002001F03CFF992001F039FF002001F05D
:1044200036FFA82001F033FF002001F030FFB92053
:1044300001F02DFF002001F02AFFC42001F027FF2A
:10444000002001F024FFCA2001F021FF002001F02C
:104450001EFFD22001F01BFF002001F018FFD82022
:1044600001F015FF002001F012FFE02001F00FFF26
:10447000002001F00CFFF32001F009FF002001F003
:1044800006FFE22001F00FFF052001F000FF0020F1
:1044900001F0FDFE0B2001F0FAFE002001F0F7FE16
:1044A0001B2001F0F4FE002001F0F1FE342001F0A9
:1044B000EEFE002001F0EBFE442001F0E8FE0020BB
:1044C00001F0E5FE4F2001F0E2FE002001F0DFFEEA
:1044D000612001F0DCFE002001F0D9FE792001F01E
:1044E000D6FE002001F0D3FE882001F0D0FE00208F
:1044F00001F0CDFE972001F0CAFE002001F0C7FEBA
:10450000A62001F0C4FE002001F0C1FEB72001F09A
:10451000BEFE002001F0BBFEC22001F0B8FE00206C
:1045200001F0B5FEC72001F0B2FE002001F0AFFEA1
:10453000D12001F0ACFE002001F0A9FED62001F050
:10454000A6FE002001F0A3FEDD2001F0A0FE002069
:1045500001F09DFEF32001F09AFE002001F097FE8D
:10456000E32001F0A0FE052001F091FE002001F003
:104570008EFE0A2001F08BFE002001F088FE1C2038
:1045800001F085FE002001F082FE332000E0FAE217
:1045900001F07DFE002001F07AFE442001F077FE5C
:1045A000002001F074FE502001F071FE002001F0A7
:1045B0006EFE622001F06BFE002001F068FE7820A4
:1045C00001F065FE002001F062FE882001F05FFE30
:1045D000002001F05CFE972001F059FE002001F060
:1045E00056FEA62001F053FE002001F050FEB72039
:1045F00001F04DFE002001F04AFEC22001F047FE0E
:10460000002001F044FEC72001F041FE002001F02F
:104610003EFED12001F03BFE002001F038FED52007
:1046200001F035FE002001F032FEDD2001F02FFE0A
:10463000002001F02CFEF32001F029FE002001F003
:1046400026FEE42001F02FFE012001F020FE0020D4
:1046500001F01DFE012001F01AFE002001F017FEFE
:10466000022001F014FE002001F011FE2A2001F0CA
:104670000EFE002001F00BFE3C2001F008FE0020A1
:1046800001F005FE4B2001F002FE002001F0FFFDCD
:104690005D2001F0FCFD002001F0F9FD742001F027
:1046A000F6FD002001F0F3FD842001F0F0FD002074
:1046B00001F0EDFD932001F0EAFD002001F0E7FD9F
:1046C000A22001F0E4FD002001F0E1FDB32001F0A3
:1046D000DEFD002001F0DBFDBE2001F0D8FD002052
:1046E00001F0D5FDC42001F0D2FD002001F0CFFD86
:1046F000CD2001F0CCFD002001F0C9FDD32001F058
:10470000C6FD002001F0C3FDDD2001F0C0FD00204A
:1047100001F0BDFDF32001F0BAFD002001F0B7FD6E
:10472000E52001F0C0FD002001F0B1FD002001F006
:10473000AEFD002001F0ABFD002001F0A8FD02203D
:1047400001F0A5FD002001F0A2FD292001F09FFD50
:10475000002001F09CFD3C2001F099FD002001F0BB
:1047600096FD4B2001F093FD002001F090FD5D20AF
:1047700001F08DFD002001F08AFD742001F087FD1D
:10478000002001F084FD842001F081FD002001F073
:104790007EFD932001F07BFD002001F078FDA2203A
:1047A00001F075FD002001F072FDB32001F06FFDF6
:1047B000002001F06CFDBE2001F069FD002001F039
:1047C00066FDC42001F063FD002001F060FDCD20F6
:1047D00001F05DFD002001F05AFDD32001F057FDEE
:1047E000002001F054FDDC2001F051FD002001F01B
:1047F0004EFDF32001F04BFD002001F048FDE620C6
:1048000001F051FD112001F042FD002001F03FFDBB
:10481000342001F03CFD002001F039FD562001F06C
:1048200036FD002001F033FD762001F030FD002040
:1048300001F02DFD772001F02AFD002001F027FD79
:10484000662001F024FD002001F021FD882001F008
:104850001EFD002001F01BFD992001F018FD002035
:1048600001F015FDBB2001F012FD002001F00FFD4D
:10487000992001F00CFD002001F009FD662001F0F7
:1048800006FD002001F003FD552001F000FD002091
:1048900001F0FDFC552001F0FAFC002001F0F7FCCE
:1048A000452001F0F4FC002001F0F1FC432001F070
:1048B000EEFC002001F0EBFC442001F0E8FC0020BD
:1048C00001F0E5FCE72001F0EEFC322001F0DFFC16
:1048D000002001F0DCFC552001F0D9FC002001F0A3
:1048E000D6FC762001F0D3FC002001F0D0FC66203D
:1048F00001F0CDFC002001F0CAFC672001F0C7FCEC
:10490000002001F0C4FC672001F0C1FC002001F090
:10491000BEFC872001F0BBFC002001F0B8FC992010
:1049200001F0B5FC002001F0B2FCBB2001F0AFFCAF
:10493000002001F0ACFC992001F0A9FC002001F05E
:10494000A6FC772001F0A3FC002001F0A0FC44208D
:1049500001F09DFC002001F09AFC562001F097FC2C
:10496000002001F094FC232001F091FC002001F0D4
:104970008EFC332001F08BFC002001F088FC4520E8
:1049800001F085FC002001F082FCE82001F08BFCA6
:10499000002001F07CFC002001F079FC992001F05E
:1049A00076FC002001F073FC872001F070FC0020F1
:1049B00001F06DFC882001F06AFC002001F067FC2A
:1049C000772001F064FC002001F061FC662001F01A
:1049D0005EFC002001F05BFC882001F058FC002008
:1049E00001F055FCAA2001F052FC002001F04FFC20
:1049F000BB2001F04CFC002001F049FC992001F0A3
:104A000046FC002001F043FC662001F040FC002041
:104A100001F03DFC552001F03AFC002001F037FC8C
:104A2000552001F034FC002001F031FC442001F05D
:104A30002EFC002001F02BFC442001F028FC00207B
:104A400001F025FC552001F022FC002001F01FFCA4
:104A5000E92001F028FCAA2001F019FC002001F057
:104A600016FC002001F013FC002001F010FC0020D7
:104A700001F019FCAA2001F00AFCCF2001F013FC80
:104A8000002001F004FC002001F001FC002001F0F6
:104A9000FEFB002001F0FBFB002001F0F8FB0020F2
:104AA00001F0F5FB002001F0F2FB002001F0EFFB2C
:104AB000002001F0ECFB002001F0E9FB002001F0F8
:104AC000E6FB002001F0E3FB002001F0E0FB00200A
:104AD00001F0DDFB002001F0DAFB002001F0D7FB44
:104AE000002001F0D4FBF02001F0DDFB002001F0FC
:104AF000CEFB502001F0CBFB002001F0C8FB0020D2
:104B000001F0C5FB002001F0C2FBF32001F0CBFB5C
:104B1000002001F0BCFBF92001F0C5FB062001F0EC
:104B2000B6FB102001F0B3FB292001F0B0FB002000
:104B300001F0ADFB3A2001F0B6FB552001F0A7FBD8
:104B4000112001F0B0FB642002F088F9292001F067
:104B5000AAFB352001F0A7FB002001F098FB5120B3
:104B600001F0A1FBFF2001F092FB532001F09BFB21
:104B70002C2001F08CFB552001F095FB822001F0E8
:104B800086FB2C20FEE3A0F5AA4110397ED0B84266
:104B90007DD1E22001F087FB1D2001F078FB02208F
:104BA00001F075FB042001F072FB642002F064F94F
:104BB000E02001F078FB012001F069FB0A2002F0FF
:104BC0004DF9E02001F06FFB032001F060FB0C20A9
:104BD00002F044F9012001F066FB0A2002F03EF9E0
:104BE000E62001F060FB2F2001F051FBFF2001F0D7
:104BF0004EFBFF2001F04BFBB02001F054FB2020C6
:104C000001F045FB002001F042FB032001F03FFBD7
:104C100040F21F3001F03BFB012001F038FB40F275
:104C2000DF1001F034FB002001F031FBB42001F073
:104C30003AFB042001F02BFB40F21F4001F027FB60
:104C4000002001F024FB2E2001F021FB002001F0C8
:104C50001EFB002001F01BFB002001F018FB0020D0
:104C600001F015FBB62001F01EFB022001F00FFB46
:104C70004FF4037001F00BFB002001F008FB17203C
:104C800001F005FB152001F002FB01E06EE03BE0C6
:104C9000002001F0FCFA002001F0F9FAF02001F008
:104CA00002FB032001F0F3FA292001F0FCFAD020E6
:104CB00001F0F9FA002001F0EAFABE2001F0F3FA5F
:104CC000052001F0E4FAFE2001F0E1FA012001F0F4
:104CD000DEFA002001F0DBFA002001F0D8FA002013
:104CE00001F0D5FAB82001F0DEFA032001F0CFFA86
:104CF000012001F0CCFABA2001F0D5FA012001F030
:104D0000C6FA642000F0D6FFFE488088404507D0F0
:104D1000B04205D0A0F5AA41103901D0B84217D150
:104D2000D4F81C0120F00F00C4F81C01D4F81C01B9
:104D300020F47060C4F81C01D4F81C0140F003009A
:104D4000C4F81C01D4F81C0140F40070C4F81C0124
:104D50000020FDF749FFEC490120C1F8BC024FF6E5
:104D6000FF70FDF707FF15B0BDE8F08F4FF47043FB
:104D70005521184601F0AEFA4FF20105AA21284646
:104D800001F0A8FA4FF202095221484601F0A2FAB6
:104D90004FF2030A0821504601F09CFA4FF2040B2F
:104DA0000121584601F096FA0D214FF4304001F0F0
:104DB00091FA0D214BF2010001F08CFA0D214BF21A
:104DC000020001F087FA34214FF4364001F082FAF4
:104DD00034214BF2016001F07DFA34214BF2026084
:104DE00001F078FA0D214FF4314001F073FA0D21F2
:104DF0004BF2011001F06EFA0D214BF2021001F09E
:104E000069FA34214FF4374001F064FA34214BF24F
:104E1000017001F05FFA34214BF2027001F05AFA8E
:104E200000214FF4324001F055FA00214BF20120ED
:104E300001F050FA00214BF2022001F04BFA24213C
:104E40004FF4384001F046FA24214BF6010001F0FE
:104E500041FA24214BF6020001F03CFA01214FF403
:104E60003F4001F037FA0F214FF4334001F032FA9E
:104E70000F214BF2013001F02DFA0F214BF20230DD
:104E800001F028FA34214FF4394001F023FA34219B
:104E90004BF6011001F01EFA34214BF6021001F01E
:104EA00019FA08214FF4354001F014FA08214BF2A9
:104EB000015001F00FFA08214BF2025001F00AFAFA
:104EC00003214FF4424001F005FA24214FF43A4007
:104ED00001F000FA24214BF6012001F0FBF9242116
:104EE0004BF6022001F0F6F900214FF43C4001F0AE
:104EF000F1F978214BF6014001F0ECF900214BF675
:104F0000024001F0E7F900214FF43D4001F0E2F9E1
:104F100078214BF6015001F0DDF900214BF60250EB
:104F200001F0D8F900214FF43E4001F0D3F964219B
:104F30004BF6016001F0CEF900214FF4514001F031
:104F4000C9F933214DF2011001F0C4F900214DF2ED
:104F5000021001F0BFF934214DF2031001F0BAF94B
:104F600000214DF2041001F0B5F93A214DF205107F
:104F700001F0B0F900214DF2061001F0ABF94A2121
:104F80004DF2071001F0A6F900214DF2081001F0D2
:104F9000A1F95C214DF2091001F09CF900214DF2BC
:104FA0000A1001F097F981214DF20B1001F092F9EE
:104FB00000214DF20C1001F08DF9A6214DF20D10DB
:104FC00001F088F900214DF20E1001F083F9E5217E
:104FD0004DF20F1001F07EF901214DF2101001F099
:104FE00079F913214DF2111001F074F901214DF2FC
:104FF000121001F06FF954214DF2131001F06AF90B
:1050000001214DF2141001F065F982214DF21510C5
:1050100001F060F901214DF2161001F05BF9CA218F
:105020004DF2171001F056F902214DF2181001F05F
:1050300051F900214DF2191001F04CF902214DF205
:105040001A1001F047F901214DF21B1001F042F94D
:1050500002214DF21C1001F03DF934214DF21D10DA
:1050600001F038F902214DF21E1001F033F96721E9
:105070004DF21F1001F02EF902214DF2201001F027
:1050800029F984214DF2211001F024F902214DF279
:10509000221001F01FF9A4214DF2231001F01AF99A
:1050A00002214DF2241001F015F9B7214DF225101F
:1050B00001F010F902214DF2261001F00BF9CF2179
:1050C0004DF2271001F006F902214DF2281001F0EF
:1050D00001F9DE214DF2291001F0FCF802214DF218
:1050E0002A1001F0F7F8F2214DF22B1001F0F2F83E
:1050F00002214DF22C1001F0EDF8FE214DF22D10A1
:1051000004E00000A40300200080404201F0E2F827
:1051100003214DF22E1001F0DDF810214DF22F1079
:1051200001F0D8F803214DF2301001F0D3F833210B
:105130004DF2311001F0CEF803214DF2321001F0A2
:10514000C9F86D214DF2331001F0C4F800214FF47D
:10515000524001F0BFF833214DF2012001F0BAF8BE
:1051600000214DF2022001F0B5F834214DF2032068
:1051700001F0B0F800214DF2042001F0ABF83A2123
:105180004DF2052001F0A6F800214DF2062001F0B5
:10519000A1F84A214DF2072001F09CF800214DF2C0
:1051A000082001F097F85C214DF2092001F092F8F7
:1051B00000214DF20A2001F08DF881214DF20B20E3
:1051C00001F088F800214DF20C2001F083F8A621AF
:1051D0004DF20D2001F07EF800214DF20E2001F07D
:1051E00079F8E5214DF20F2001F074F801214DF21C
:1051F000102001F06FF813214DF2112001F06AF830
:1052000001214DF2122001F065F854214DF21320D6
:1052100001F060F801214DF2142001F05BF88221C9
:105220004DF2152001F056F801214DF2162001F043
:1052300051F8CA214DF2172001F04CF802214DF22D
:10524000182001F047F800214DF2192001F042F832
:1052500002214DF21A2001F03DF801214DF21B20F0
:1052600001F038F802214DF21C2001F033F834210E
:105270004DF21D2001F02EF802214DF21E2001F00A
:1052800029F867214DF21F2001F024F802214DF288
:10529000202001F01FF884214DF2212001F01AF89E
:1052A00002214DF2222001F015F8A4214DF2232015
:1052B00001F010F802214DF2242001F00BF8B72183
:1052C0004DF2252001F006F802214DF2262001F0D2
:1052D00001F8CF214DF2272000F0FCFF02214DF212
:1052E000282000F0F7FFDE214DF2292000F0F2FF28
:1052F00002214DF22A2000F0EDFFF2214DF22B2089
:1053000000F0E8FF02214DF22C2000F0E3FFFE2127
:105310004DF22D2000F0DEFF03214DF22E2000F093
:10532000D9FF10214DF22F2000F0D4FF03214DF2C0
:10533000302000F0CFFF33214DF2312000F0CAFFC2
:1053400003214DF2322000F0C5FF6D214DF23320D4
:1053500000F0C0FF00214FF4534000F0BBFF3321A9
:105360004DF2013000F0B6FF00214DF2023000F0A6
:10537000B1FF34214DF2033000F0ACFF00214DF2BB
:10538000043000E0FEE300F0A5FF3A214DF20530C5
:1053900000F0A0FF00214DF2063000F09BFF4A21F3
:1053A0004DF2073000F096FF00214DF2083000F07A
:1053B00091FF5C214DF2093000F08CFF00214DF28D
:1053C0000A3000F087FF81214DF20B3000F082FFA0
:1053D00000214DF20C3000F07DFFA6214DF20D3082
:1053E00000F078FF00214DF20E3000F073FFE52150
:1053F0004DF20F3000F06EFF01214DF2103000F041
:1054000069FF13214DF2113000F064FF01214DF2CC
:10541000123000F05FFF54214DF2133000F05AFFBC
:1054200001214DF2143000F055FF82214DF215306C
:1054300000F050FF01214DF2163000F04BFFCA2161
:105440004DF2173000F046FF02214DF2183000F007
:1054500041FF00214DF2193000F03CFF02214DF2D6
:105460001A3000F037FF01214DF21B3000F032FFFF
:1054700002214DF21C3000F02DFF34214DF21D3081
:1054800000F028FF02214DF21E3000F023FF6721BB
:105490004DF21F3000F01EFF02214DF2203000F0CF
:1054A00019FF84214DF2213000F014FF02214DF24A
:1054B000223000F00FFFA4214DF2233000F00AFF4C
:1054C00002214DF2243000F005FFB7214DF22530C6
:1054D00000F000FF02214DF2263000F0FBFECF214C
:1054E0004DF2273000F0F6FE02214DF2283000F098
:1054F000F1FEDE214DF2293000F0ECFE02214DF2EA
:105500002A3000F0E7FEF2214DF22B3000F0E2FEEF
:1055100002214DF22C3000F0DDFEFE214DF22D3047
:1055200000F0D8FE03214DF22E3000F0D3FE102102
:105530004DF22F3000F0CEFE03214DF2303000F05E
:10554000C9FE33214DF2313000F0C4FE03214DF28B
:10555000323000F0BFFE6D214DF2333000F0BAFE64
:1055600000214FF4544000F0B5FE33214DF20140CC
:1055700000F0B0FE00214DF2024000F0ABFE3421FD
:105580004DF2034000F0A6FE00214DF2044000F071
:10559000A1FE3A214DF2054000F09CFE00214DF2A3
:1055A000064000F097FE4A214DF2074000F092FEBF
:1055B00000214DF2084000F08DFE5C214DF20940C3
:1055C00000F088FE00214DF20A4000F083FE8121A8
:1055D0004DF20B4000F07EFE00214DF20C4000F039
:1055E00079FEA6214DF20D4000F074FE00214DF22F
:1055F0000E4000F06FFEE5214DF20F4000F06AFE14
:1056000001214DF2104000F065FE13214DF21140D2
:1056100000F060FE01214DF2124000F05BFE5421CB
:105620004DF2134000F056FE01214DF2144000F0FF
:1056300051FE82214DF2154000F04CFE01214DF249
:10564000164000F047FECA214DF2174000F042FE1E
:1056500002214DF2184000F03DFE00214DF21940AC
:1056600000F038FE02214DF21A4000F033FE012115
:105670004DF21B4000F02EFE02214DF21C4000F0C6
:1056800029FE34214DF21D4000F024FE02214DF28E
:105690001E4000F01FFE67214DF21F4000F01AFE71
:1056A00002214DF2204000F015FE84214DF22140F0
:1056B00000F010FE02214DF2224000F00BFEA4216A
:1056C0004DF2234000F006FE02214DF2244000F08E
:1056D00001FEB7214DF2254000F0FCFD02214DF204
:1056E000264000F0F7FDCF214DF2274000F0F2FDFB
:1056F00002214DF2284000F0EDFDDE214DF229405F
:1057000000F0E8FD02214DF22A4000F0E3FDF22115
:105710004DF22B4000F0DEFD02214DF22C4000F056
:10572000D9FDFE214DF22D4000F0D4FD03214DF2B4
:105730002E4000F0CFFD10214DF22F4000F0CAFDA9
:1057400003214DF2304000F0C5FD33214DF23140D0
:1057500000F0C0FD03214DF2324000F0BBFD6D2191
:105760004DF2334000F0B6FD00214FF4554000F0FB
:10577000B1FD33214DF2015000F0ACFD00214DF29E
:10578000025000F0A7FD34214DF2035000F0A2FDBD
:1057900000214DF2045000F09DFD3A214DF20550DC
:1057A00000F098FD00214DF2065000F093FD4A21D3
:1057B0004DF2075000F08EFD00214DF2085000F030
:1057C00089FD5C214DF2095000F084FD00214DF26D
:1057D0000A5000F07FFD81214DF20B5000F07AFD60
:1057E00000214DF20C5000F075FDA6214DF20D5038
:1057F00000F070FD00214DF20E5000F06BFDE52130
:105800004DF20F5000F066FD01214DF2105000F0F6
:1058100061FD13214DF2115000F05CFD01214DF2AC
:10582000125000F057FD54214DF2135000F052FD7C
:1058300001214DF2145000F04DFD82214DF2155022
:1058400000F048FD01214DF2165000F043FDCA2141
:105850004DF2175000F03EFD02214DF2185000F0BD
:1058600039FD00214DF2195000F034FD02214DF2B6
:105870001A5000F02FFD01214DF21B5000F02AFDBF
:1058800002214DF21C5000F025FD34214DF21D5037
:1058900000F020FD02214DF21E5000F01BFD67219B
:1058A0004DF21F5000F016FD02214DF2205000F085
:1058B00011FD84214DF2215000F00CFD02214DF22A
:1058C000225000F007FDA4214DF2235000F002FD0C
:1058D00002214DF2245000F0FDFCB7214DF225507D
:1058E00000F0F8FC02214DF2265000F0F3FCCF212D
:1058F0004DF2275000F0EEFC02214DF2285000F04E
:10590000E9FCDE214DF2295000F0E4FC02214DF2C9
:105910002A5000F0DFFCF2214DF22B5000F0DAFCAF
:1059200002214DF22C5000F0D5FCFE214DF22D50FD
:1059300000F0D0FC03214DF22E5000F0CBFC1021E2
:105940004DF22F5000F0C6FC03214DF2305000F014
:10595000C1FC33214DF2315000F0BCFC03214DF26B
:10596000325000F0B7FC6D214DF2335000F0B2FC24
:1059700000214FF4564000F0ADFC33214DF20160A0
:1059800000F0A8FC00214DF2026000F0A3FC3421DD
:105990004DF2036000F09EFC00214DF2046000F027
:1059A00099FC3A214DF2056000F094FC00214DF283
:1059B000066000F08FFC4A214DF2076000F08AFC7F
:1059C00000214DF2086000F085FC5C214DF2096079
:1059D00000F080FC00214DF20A6000F07BFC812188
:1059E0004DF20B6000F076FC00214DF20C6000F0EF
:1059F00071FCA6214DF20D6000F06CFC00214DF20F
:105A00000E6000F067FCE5214DF20F6000F062FCD3
:105A100001214DF2106000F05DFC13214DF2116088
:105A200000F058FC01214DF2126000F053FC5421AB
:105A30004DF2136000F04EFC01214DF2146000F0B5
:105A400049FC82214DF2156000F044FC01214DF229
:105A5000166000F03FFCCA214DF2176000F03AFCDE
:105A600002214DF2186000F035FC00214DF2196062
:105A700000F030FC02214DF21A6000F02BFC0121F5
:105A80004DF21B6000F026FC02214DF21C6000F07C
:105A900021FC34214DF21D6000F01CFC02214DF26E
:105AA0001E6000F017FC67214DF21F6000F012FC31
:105AB00002214DF2206000F00DFC84214DF22160A6
:105AC00000F008FC02214DF2226000F003FCA4214A
:105AD0004DF2236000F0FEFB02214DF2246000F045
